{
	"Certificate Validation With BlockChain/CertificateValidation.sol": {
		"CertificateValidation": {
			"abi": [
				{
					"inputs": [],
					"stateMutability": "nonpayable",
					"type": "constructor"
				},
				{
					"anonymous": false,
					"inputs": [
						{
							"indexed": true,
							"internalType": "uint256",
							"name": "certId",
							"type": "uint256"
						},
						{
							"indexed": false,
							"internalType": "string",
							"name": "studentName",
							"type": "string"
						},
						{
							"indexed": false,
							"internalType": "string",
							"name": "courseName",
							"type": "string"
						},
						{
							"indexed": false,
							"internalType": "string",
							"name": "ipfsHash",
							"type": "string"
						},
						{
							"indexed": false,
							"internalType": "uint64",
							"name": "issuedAt",
							"type": "uint64"
						}
					],
					"name": "CertificateIssued",
					"type": "event"
				},
				{
					"anonymous": false,
					"inputs": [
						{
							"indexed": true,
							"internalType": "uint256",
							"name": "certId",
							"type": "uint256"
						},
						{
							"indexed": false,
							"internalType": "uint64",
							"name": "revokedAt",
							"type": "uint64"
						}
					],
					"name": "CertificateRevoked",
					"type": "event"
				},
				{
					"inputs": [
						{
							"internalType": "uint256",
							"name": "",
							"type": "uint256"
						}
					],
					"name": "certificates",
					"outputs": [
						{
							"internalType": "string",
							"name": "studentName",
							"type": "string"
						},
						{
							"internalType": "string",
							"name": "courseName",
							"type": "string"
						},
						{
							"internalType": "string",
							"name": "ipfsHash",
							"type": "string"
						},
						{
							"internalType": "uint64",
							"name": "issuedAt",
							"type": "uint64"
						},
						{
							"internalType": "bool",
							"name": "isRevoked",
							"type": "bool"
						},
						{
							"internalType": "uint64",
							"name": "revokedAt",
							"type": "uint64"
						}
					],
					"stateMutability": "view",
					"type": "function"
				},
				{
					"inputs": [
						{
							"internalType": "uint256",
							"name": "certId",
							"type": "uint256"
						},
						{
							"internalType": "string",
							"name": "studentName",
							"type": "string"
						},
						{
							"internalType": "string",
							"name": "courseName",
							"type": "string"
						},
						{
							"internalType": "string",
							"name": "ipfsHash",
							"type": "string"
						}
					],
					"name": "issueCertificate",
					"outputs": [],
					"stateMutability": "nonpayable",
					"type": "function"
				},
				{
					"inputs": [],
					"name": "owner",
					"outputs": [
						{
							"internalType": "address",
							"name": "",
							"type": "address"
						}
					],
					"stateMutability": "view",
					"type": "function"
				},
				{
					"inputs": [
						{
							"internalType": "uint256",
							"name": "certId",
							"type": "uint256"
						}
					],
					"name": "revokeCertificate",
					"outputs": [],
					"stateMutability": "nonpayable",
					"type": "function"
				},
				{
					"inputs": [
						{
							"internalType": "uint256",
							"name": "certId",
							"type": "uint256"
						}
					],
					"name": "verifyCertificate",
					"outputs": [
						{
							"internalType": "string",
							"name": "studentName",
							"type": "string"
						},
						{
							"internalType": "string",
							"name": "courseName",
							"type": "string"
						},
						{
							"internalType": "string",
							"name": "ipfsHash",
							"type": "string"
						},
						{
							"internalType": "uint64",
							"name": "issuedAt",
							"type": "uint64"
						},
						{
							"internalType": "bool",
							"name": "isRevoked",
							"type": "bool"
						},
						{
							"internalType": "uint64",
							"name": "revokedAt",
							"type": "uint64"
						}
					],
					"stateMutability": "view",
					"type": "function"
				}
			],
			"devdoc": {
				"kind": "dev",
				"methods": {},
				"version": 1
			},
			"evm": {
				"assembly": "    /* \"Certificate Validation With BlockChain/CertificateValidation.sol\":61:2645  contract CertificateValidation {... */\n  mstore(0x40, 0x80)\n    /* \"Certificate Validation With BlockChain/CertificateValidation.sol\":771:822  constructor() {... */\n  callvalue\n  dup1\n  iszero\n  tag_1\n  jumpi\n  revert(0x00, 0x00)\ntag_1:\n  pop\n    /* \"Certificate Validation With BlockChain/CertificateValidation.sol\":804:814  msg.sender */\n  caller\n    /* \"Certificate Validation With BlockChain/CertificateValidation.sol\":796:801  owner */\n  0x00\n  0x00\n    /* \"Certificate Validation With BlockChain/CertificateValidation.sol\":796:814  owner = msg.sender */\n  0x0100\n  exp\n  dup2\n  sload\n  dup2\n  0xffffffffffffffffffffffffffffffffffffffff\n  mul\n  not\n  and\n  swap1\n  dup4\n  0xffffffffffffffffffffffffffffffffffffffff\n  and\n  mul\n  or\n  swap1\n  sstore\n  pop\n    /* \"Certificate Validation With BlockChain/CertificateValidation.sol\":61:2645  contract CertificateValidation {... */\n  dataSize(sub_0)\n  dup1\n  dataOffset(sub_0)\n  0x00\n  codecopy\n  0x00\n  return\nstop\n\nsub_0: assembly {\n        /* \"Certificate Validation With BlockChain/CertificateValidation.sol\":61:2645  contract CertificateValidation {... */\n      mstore(0x40, 0x80)\n      callvalue\n      dup1\n      iszero\n      tag_1\n      jumpi\n      revert(0x00, 0x00)\n    tag_1:\n      pop\n      jumpi(tag_2, lt(calldatasize, 0x04))\n      shr(0xe0, calldataload(0x00))\n      dup1\n      0x06f5497e\n      eq\n      tag_3\n      jumpi\n      dup1\n      0x1692a942\n      eq\n      tag_4\n      jumpi\n      dup1\n      0x663b3e22\n      eq\n      tag_5\n      jumpi\n      dup1\n      0x7cd44c23\n      eq\n      tag_6\n      jumpi\n      dup1\n      0x8da5cb5b\n      eq\n      tag_7\n      jumpi\n    tag_2:\n      revert(0x00, 0x00)\n        /* \"Certificate Validation With BlockChain/CertificateValidation.sol\":1668:2045  function revokeCertificate(uint256 certId) external onlyOwner {... */\n    tag_3:\n      tag_8\n      0x04\n      dup1\n      calldatasize\n      sub\n      dup2\n      add\n      swap1\n      tag_9\n      swap2\n      swap1\n      tag_10\n      jump\t// in\n    tag_9:\n      tag_11\n      jump\t// in\n    tag_8:\n      stop\n        /* \"Certificate Validation With BlockChain/CertificateValidation.sol\":2103:2642  function verifyCertificate(uint256 certId)... */\n    tag_4:\n      tag_12\n      0x04\n      dup1\n      calldatasize\n      sub\n      dup2\n      add\n      swap1\n      tag_13\n      swap2\n      swap1\n      tag_10\n      jump\t// in\n    tag_13:\n      tag_14\n      jump\t// in\n    tag_12:\n      mload(0x40)\n      tag_15\n      swap7\n      swap6\n      swap5\n      swap4\n      swap3\n      swap2\n      swap1\n      tag_16\n      jump\t// in\n    tag_15:\n      mload(0x40)\n      dup1\n      swap2\n      sub\n      swap1\n      return\n        /* \"Certificate Validation With BlockChain/CertificateValidation.sol\":356:407  mapping(uint256 => Certificate) public certificates */\n    tag_5:\n      tag_17\n      0x04\n      dup1\n      calldatasize\n      sub\n      dup2\n      add\n      swap1\n      tag_18\n      swap2\n      swap1\n      tag_10\n      jump\t// in\n    tag_18:\n      tag_19\n      jump\t// in\n    tag_17:\n      mload(0x40)\n      tag_20\n      swap7\n      swap6\n      swap5\n      swap4\n      swap3\n      swap2\n      swap1\n      tag_16\n      jump\t// in\n    tag_20:\n      mload(0x40)\n      dup1\n      swap2\n      sub\n      swap1\n      return\n        /* \"Certificate Validation With BlockChain/CertificateValidation.sol\":897:1608  function issueCertificate(... */\n    tag_6:\n      tag_21\n      0x04\n      dup1\n      calldatasize\n      sub\n      dup2\n      add\n      swap1\n      tag_22\n      swap2\n      swap1\n      tag_23\n      jump\t// in\n    tag_22:\n      tag_24\n      jump\t// in\n    tag_21:\n      stop\n        /* \"Certificate Validation With BlockChain/CertificateValidation.sol\":99:119  address public owner */\n    tag_7:\n      tag_25\n      tag_26\n      jump\t// in\n    tag_25:\n      mload(0x40)\n      tag_27\n      swap2\n      swap1\n      tag_28\n      jump\t// in\n    tag_27:\n      mload(0x40)\n      dup1\n      swap2\n      sub\n      swap1\n      return\n        /* \"Certificate Validation With BlockChain/CertificateValidation.sol\":1668:2045  function revokeCertificate(uint256 certId) external onlyOwner {... */\n    tag_11:\n        /* \"Certificate Validation With BlockChain/CertificateValidation.sol\":724:729  owner */\n      0x00\n      0x00\n      swap1\n      sload\n      swap1\n      0x0100\n      exp\n      swap1\n      div\n      0xffffffffffffffffffffffffffffffffffffffff\n      and\n        /* \"Certificate Validation With BlockChain/CertificateValidation.sol\":710:729  msg.sender == owner */\n      0xffffffffffffffffffffffffffffffffffffffff\n      and\n        /* \"Certificate Validation With BlockChain/CertificateValidation.sol\":710:720  msg.sender */\n      caller\n        /* \"Certificate Validation With BlockChain/CertificateValidation.sol\":710:729  msg.sender == owner */\n      0xffffffffffffffffffffffffffffffffffffffff\n      and\n      eq\n        /* \"Certificate Validation With BlockChain/CertificateValidation.sol\":702:743  require(msg.sender == owner, \"NOT_OWNER\") */\n      tag_30\n      jumpi\n      mload(0x40)\n      0x08c379a000000000000000000000000000000000000000000000000000000000\n      dup2\n      mstore\n      0x04\n      add\n      tag_31\n      swap1\n      tag_32\n      jump\t// in\n    tag_31:\n      mload(0x40)\n      dup1\n      swap2\n      sub\n      swap1\n      revert\n    tag_30:\n        /* \"Certificate Validation With BlockChain/CertificateValidation.sol\":1741:1762  Certificate storage c */\n      0x00\n        /* \"Certificate Validation With BlockChain/CertificateValidation.sol\":1765:1777  certificates */\n      0x01\n        /* \"Certificate Validation With BlockChain/CertificateValidation.sol\":1765:1785  certificates[certId] */\n      0x00\n        /* \"Certificate Validation With BlockChain/CertificateValidation.sol\":1778:1784  certId */\n      dup4\n        /* \"Certificate Validation With BlockChain/CertificateValidation.sol\":1765:1785  certificates[certId] */\n      dup2\n      mstore\n      0x20\n      add\n      swap1\n      dup2\n      mstore\n      0x20\n      add\n      0x00\n      keccak256\n        /* \"Certificate Validation With BlockChain/CertificateValidation.sol\":1741:1785  Certificate storage c = certificates[certId] */\n      swap1\n      pop\n        /* \"Certificate Validation With BlockChain/CertificateValidation.sol\":1835:1836  0 */\n      0x00\n        /* \"Certificate Validation With BlockChain/CertificateValidation.sol\":1810:1811  c */\n      dup2\n        /* \"Certificate Validation With BlockChain/CertificateValidation.sol\":1810:1823  c.studentName */\n      0x00\n      add\n        /* \"Certificate Validation With BlockChain/CertificateValidation.sol\":1804:1831  bytes(c.studentName).length */\n      dup1\n      sload\n      tag_34\n      swap1\n      tag_35\n      jump\t// in\n    tag_34:\n      swap1\n      pop\n        /* \"Certificate Validation With BlockChain/CertificateValidation.sol\":1804:1836  bytes(c.studentName).length != 0 */\n      sub\n        /* \"Certificate Validation With BlockChain/CertificateValidation.sol\":1796:1850  require(bytes(c.studentName).length != 0, \"NOT_FOUND\") */\n      tag_36\n      jumpi\n      mload(0x40)\n      0x08c379a000000000000000000000000000000000000000000000000000000000\n      dup2\n      mstore\n      0x04\n      add\n      tag_37\n      swap1\n      tag_38\n      jump\t// in\n    tag_37:\n      mload(0x40)\n      dup1\n      swap2\n      sub\n      swap1\n      revert\n    tag_36:\n        /* \"Certificate Validation With BlockChain/CertificateValidation.sol\":1870:1871  c */\n      dup1\n        /* \"Certificate Validation With BlockChain/CertificateValidation.sol\":1870:1881  c.isRevoked */\n      0x03\n      add\n      0x08\n      swap1\n      sload\n      swap1\n      0x0100\n      exp\n      swap1\n      div\n      0xff\n      and\n        /* \"Certificate Validation With BlockChain/CertificateValidation.sol\":1869:1881  !c.isRevoked */\n      iszero\n        /* \"Certificate Validation With BlockChain/CertificateValidation.sol\":1861:1901  require(!c.isRevoked, \"ALREADY_REVOKED\") */\n      tag_39\n      jumpi\n      mload(0x40)\n      0x08c379a000000000000000000000000000000000000000000000000000000000\n      dup2\n      mstore\n      0x04\n      add\n      tag_40\n      swap1\n      tag_41\n      jump\t// in\n    tag_40:\n      mload(0x40)\n      dup1\n      swap2\n      sub\n      swap1\n      revert\n    tag_39:\n        /* \"Certificate Validation With BlockChain/CertificateValidation.sol\":1928:1932  true */\n      0x01\n        /* \"Certificate Validation With BlockChain/CertificateValidation.sol\":1914:1915  c */\n      dup2\n        /* \"Certificate Validation With BlockChain/CertificateValidation.sol\":1914:1925  c.isRevoked */\n      0x03\n      add\n      0x08\n        /* \"Certificate Validation With BlockChain/CertificateValidation.sol\":1914:1932  c.isRevoked = true */\n      0x0100\n      exp\n      dup2\n      sload\n      dup2\n      0xff\n      mul\n      not\n      and\n      swap1\n      dup4\n      iszero\n      iszero\n      mul\n      or\n      swap1\n      sstore\n      pop\n        /* \"Certificate Validation With BlockChain/CertificateValidation.sol\":1964:1979  block.timestamp */\n      timestamp\n        /* \"Certificate Validation With BlockChain/CertificateValidation.sol\":1943:1944  c */\n      dup2\n        /* \"Certificate Validation With BlockChain/CertificateValidation.sol\":1943:1954  c.revokedAt */\n      0x03\n      add\n      0x09\n        /* \"Certificate Validation With BlockChain/CertificateValidation.sol\":1943:1980  c.revokedAt = uint64(block.timestamp) */\n      0x0100\n      exp\n      dup2\n      sload\n      dup2\n      0xffffffffffffffff\n      mul\n      not\n      and\n      swap1\n      dup4\n      0xffffffffffffffff\n      and\n      mul\n      or\n      swap1\n      sstore\n      pop\n        /* \"Certificate Validation With BlockChain/CertificateValidation.sol\":2017:2023  certId */\n      dup2\n        /* \"Certificate Validation With BlockChain/CertificateValidation.sol\":1998:2037  CertificateRevoked(certId, c.revokedAt) */\n      0x3d69985c2efbdaf389b879cbe810cfa45fcfe95d59117c7f68dce2cde7605d3f\n        /* \"Certificate Validation With BlockChain/CertificateValidation.sol\":2025:2026  c */\n      dup3\n        /* \"Certificate Validation With BlockChain/CertificateValidation.sol\":2025:2036  c.revokedAt */\n      0x03\n      add\n      0x09\n      swap1\n      sload\n      swap1\n      0x0100\n      exp\n      swap1\n      div\n      0xffffffffffffffff\n      and\n        /* \"Certificate Validation With BlockChain/CertificateValidation.sol\":1998:2037  CertificateRevoked(certId, c.revokedAt) */\n      mload(0x40)\n      tag_42\n      swap2\n      swap1\n      tag_43\n      jump\t// in\n    tag_42:\n      mload(0x40)\n      dup1\n      swap2\n      sub\n      swap1\n      log2\n        /* \"Certificate Validation With BlockChain/CertificateValidation.sol\":1730:2045  {... */\n      pop\n        /* \"Certificate Validation With BlockChain/CertificateValidation.sol\":1668:2045  function revokeCertificate(uint256 certId) external onlyOwner {... */\n      pop\n      jump\t// out\n        /* \"Certificate Validation With BlockChain/CertificateValidation.sol\":2103:2642  function verifyCertificate(uint256 certId)... */\n    tag_14:\n        /* \"Certificate Validation With BlockChain/CertificateValidation.sol\":2210:2235  string memory studentName */\n      0x60\n        /* \"Certificate Validation With BlockChain/CertificateValidation.sol\":2250:2274  string memory courseName */\n      dup1\n        /* \"Certificate Validation With BlockChain/CertificateValidation.sol\":2289:2311  string memory ipfsHash */\n      0x60\n        /* \"Certificate Validation With BlockChain/CertificateValidation.sol\":2326:2341  uint64 issuedAt */\n      0x00\n        /* \"Certificate Validation With BlockChain/CertificateValidation.sol\":2356:2370  bool isRevoked */\n      0x00\n        /* \"Certificate Validation With BlockChain/CertificateValidation.sol\":2385:2401  uint64 revokedAt */\n      0x00\n        /* \"Certificate Validation With BlockChain/CertificateValidation.sol\":2429:2449  Certificate memory c */\n      0x00\n        /* \"Certificate Validation With BlockChain/CertificateValidation.sol\":2452:2464  certificates */\n      0x01\n        /* \"Certificate Validation With BlockChain/CertificateValidation.sol\":2452:2472  certificates[certId] */\n      0x00\n        /* \"Certificate Validation With BlockChain/CertificateValidation.sol\":2465:2471  certId */\n      dup10\n        /* \"Certificate Validation With BlockChain/CertificateValidation.sol\":2452:2472  certificates[certId] */\n      dup2\n      mstore\n      0x20\n      add\n      swap1\n      dup2\n      mstore\n      0x20\n      add\n      0x00\n      keccak256\n        /* \"Certificate Validation With BlockChain/CertificateValidation.sol\":2429:2472  Certificate memory c = certificates[certId] */\n      mload(0x40)\n      dup1\n      0xc0\n      add\n      0x40\n      mstore\n      swap1\n      dup2\n      0x00\n      dup3\n      add\n      dup1\n      sload\n      tag_45\n      swap1\n      tag_35\n      jump\t// in\n    tag_45:\n      dup1\n      0x1f\n      add\n      0x20\n      dup1\n      swap2\n      div\n      mul\n      0x20\n      add\n      mload(0x40)\n      swap1\n      dup2\n      add\n      0x40\n      mstore\n      dup1\n      swap3\n      swap2\n      swap1\n      dup2\n      dup2\n      mstore\n      0x20\n      add\n      dup3\n      dup1\n      sload\n      tag_46\n      swap1\n      tag_35\n      jump\t// in\n    tag_46:\n      dup1\n      iszero\n      tag_47\n      jumpi\n      dup1\n      0x1f\n      lt\n      tag_48\n      jumpi\n      0x0100\n      dup1\n      dup4\n      sload\n      div\n      mul\n      dup4\n      mstore\n      swap2\n      0x20\n      add\n      swap2\n      jump(tag_47)\n    tag_48:\n      dup3\n      add\n      swap2\n      swap1\n      0x00\n      mstore\n      keccak256(0x00, 0x20)\n      swap1\n    tag_49:\n      dup2\n      sload\n      dup2\n      mstore\n      swap1\n      0x01\n      add\n      swap1\n      0x20\n      add\n      dup1\n      dup4\n      gt\n      tag_49\n      jumpi\n      dup3\n      swap1\n      sub\n      0x1f\n      and\n      dup3\n      add\n      swap2\n    tag_47:\n      pop\n      pop\n      pop\n      pop\n      pop\n      dup2\n      mstore\n      0x20\n      add\n      0x01\n      dup3\n      add\n      dup1\n      sload\n      tag_50\n      swap1\n      tag_35\n      jump\t// in\n    tag_50:\n      dup1\n      0x1f\n      add\n      0x20\n      dup1\n      swap2\n      div\n      mul\n      0x20\n      add\n      mload(0x40)\n      swap1\n      dup2\n      add\n      0x40\n      mstore\n      dup1\n      swap3\n      swap2\n      swap1\n      dup2\n      dup2\n      mstore\n      0x20\n      add\n      dup3\n      dup1\n      sload\n      tag_51\n      swap1\n      tag_35\n      jump\t// in\n    tag_51:\n      dup1\n      iszero\n      tag_52\n      jumpi\n      dup1\n      0x1f\n      lt\n      tag_53\n      jumpi\n      0x0100\n      dup1\n      dup4\n      sload\n      div\n      mul\n      dup4\n      mstore\n      swap2\n      0x20\n      add\n      swap2\n      jump(tag_52)\n    tag_53:\n      dup3\n      add\n      swap2\n      swap1\n      0x00\n      mstore\n      keccak256(0x00, 0x20)\n      swap1\n    tag_54:\n      dup2\n      sload\n      dup2\n      mstore\n      swap1\n      0x01\n      add\n      swap1\n      0x20\n      add\n      dup1\n      dup4\n      gt\n      tag_54\n      jumpi\n      dup3\n      swap1\n      sub\n      0x1f\n      and\n      dup3\n      add\n      swap2\n    tag_52:\n      pop\n      pop\n      pop\n      pop\n      pop\n      dup2\n      mstore\n      0x20\n      add\n      0x02\n      dup3\n      add\n      dup1\n      sload\n      tag_55\n      swap1\n      tag_35\n      jump\t// in\n    tag_55:\n      dup1\n      0x1f\n      add\n      0x20\n      dup1\n      swap2\n      div\n      mul\n      0x20\n      add\n      mload(0x40)\n      swap1\n      dup2\n      add\n      0x40\n      mstore\n      dup1\n      swap3\n      swap2\n      swap1\n      dup2\n      dup2\n      mstore\n      0x20\n      add\n      dup3\n      dup1\n      sload\n      tag_56\n      swap1\n      tag_35\n      jump\t// in\n    tag_56:\n      dup1\n      iszero\n      tag_57\n      jumpi\n      dup1\n      0x1f\n      lt\n      tag_58\n      jumpi\n      0x0100\n      dup1\n      dup4\n      sload\n      div\n      mul\n      dup4\n      mstore\n      swap2\n      0x20\n      add\n      swap2\n      jump(tag_57)\n    tag_58:\n      dup3\n      add\n      swap2\n      swap1\n      0x00\n      mstore\n      keccak256(0x00, 0x20)\n      swap1\n    tag_59:\n      dup2\n      sload\n      dup2\n      mstore\n      swap1\n      0x01\n      add\n      swap1\n      0x20\n      add\n      dup1\n      dup4\n      gt\n      tag_59\n      jumpi\n      dup3\n      swap1\n      sub\n      0x1f\n      and\n      dup3\n      add\n      swap2\n    tag_57:\n      pop\n      pop\n      pop\n      pop\n      pop\n      dup2\n      mstore\n      0x20\n      add\n      0x03\n      dup3\n      add\n      0x00\n      swap1\n      sload\n      swap1\n      0x0100\n      exp\n      swap1\n      div\n      0xffffffffffffffff\n      and\n      0xffffffffffffffff\n      and\n      0xffffffffffffffff\n      and\n      dup2\n      mstore\n      0x20\n      add\n      0x03\n      dup3\n      add\n      0x08\n      swap1\n      sload\n      swap1\n      0x0100\n      exp\n      swap1\n      div\n      0xff\n      and\n      iszero\n      iszero\n      iszero\n      iszero\n      dup2\n      mstore\n      0x20\n      add\n      0x03\n      dup3\n      add\n      0x09\n      swap1\n      sload\n      swap1\n      0x0100\n      exp\n      swap1\n      div\n      0xffffffffffffffff\n      and\n      0xffffffffffffffff\n      and\n      0xffffffffffffffff\n      and\n      dup2\n      mstore\n      pop\n      pop\n      swap1\n      pop\n        /* \"Certificate Validation With BlockChain/CertificateValidation.sol\":2522:2523  0 */\n      0x00\n        /* \"Certificate Validation With BlockChain/CertificateValidation.sol\":2497:2498  c */\n      dup2\n        /* \"Certificate Validation With BlockChain/CertificateValidation.sol\":2497:2510  c.studentName */\n      0x00\n      add\n      mload\n        /* \"Certificate Validation With BlockChain/CertificateValidation.sol\":2491:2518  bytes(c.studentName).length */\n      mload\n        /* \"Certificate Validation With BlockChain/CertificateValidation.sol\":2491:2523  bytes(c.studentName).length != 0 */\n      sub\n        /* \"Certificate Validation With BlockChain/CertificateValidation.sol\":2483:2537  require(bytes(c.studentName).length != 0, \"NOT_FOUND\") */\n      tag_60\n      jumpi\n      mload(0x40)\n      0x08c379a000000000000000000000000000000000000000000000000000000000\n      dup2\n      mstore\n      0x04\n      add\n      tag_61\n      swap1\n      tag_38\n      jump\t// in\n    tag_61:\n      mload(0x40)\n      dup1\n      swap2\n      sub\n      swap1\n      revert\n    tag_60:\n        /* \"Certificate Validation With BlockChain/CertificateValidation.sol\":2556:2557  c */\n      dup1\n        /* \"Certificate Validation With BlockChain/CertificateValidation.sol\":2556:2569  c.studentName */\n      0x00\n      add\n      mload\n        /* \"Certificate Validation With BlockChain/CertificateValidation.sol\":2571:2572  c */\n      dup2\n        /* \"Certificate Validation With BlockChain/CertificateValidation.sol\":2571:2583  c.courseName */\n      0x20\n      add\n      mload\n        /* \"Certificate Validation With BlockChain/CertificateValidation.sol\":2585:2586  c */\n      dup3\n        /* \"Certificate Validation With BlockChain/CertificateValidation.sol\":2585:2595  c.ipfsHash */\n      0x40\n      add\n      mload\n        /* \"Certificate Validation With BlockChain/CertificateValidation.sol\":2597:2598  c */\n      dup4\n        /* \"Certificate Validation With BlockChain/CertificateValidation.sol\":2597:2607  c.issuedAt */\n      0x60\n      add\n      mload\n        /* \"Certificate Validation With BlockChain/CertificateValidation.sol\":2609:2610  c */\n      dup5\n        /* \"Certificate Validation With BlockChain/CertificateValidation.sol\":2609:2620  c.isRevoked */\n      0x80\n      add\n      mload\n        /* \"Certificate Validation With BlockChain/CertificateValidation.sol\":2622:2623  c */\n      dup6\n        /* \"Certificate Validation With BlockChain/CertificateValidation.sol\":2622:2633  c.revokedAt */\n      0xa0\n      add\n      mload\n        /* \"Certificate Validation With BlockChain/CertificateValidation.sol\":2548:2634  return (c.studentName, c.courseName, c.ipfsHash, c.issuedAt, c.isRevoked, c.revokedAt) */\n      swap7\n      pop\n      swap7\n      pop\n      swap7\n      pop\n      swap7\n      pop\n      swap7\n      pop\n      swap7\n      pop\n      pop\n        /* \"Certificate Validation With BlockChain/CertificateValidation.sol\":2103:2642  function verifyCertificate(uint256 certId)... */\n      swap2\n      swap4\n      swap6\n      pop\n      swap2\n      swap4\n      swap6\n      jump\t// out\n        /* \"Certificate Validation With BlockChain/CertificateValidation.sol\":356:407  mapping(uint256 => Certificate) public certificates */\n    tag_19:\n      mstore(0x20, 0x01)\n      dup1\n      0x00\n      mstore\n      keccak256(0x00, 0x40)\n      0x00\n      swap2\n      pop\n      swap1\n      pop\n      dup1\n      0x00\n      add\n      dup1\n      sload\n      tag_62\n      swap1\n      tag_35\n      jump\t// in\n    tag_62:\n      dup1\n      0x1f\n      add\n      0x20\n      dup1\n      swap2\n      div\n      mul\n      0x20\n      add\n      mload(0x40)\n      swap1\n      dup2\n      add\n      0x40\n      mstore\n      dup1\n      swap3\n      swap2\n      swap1\n      dup2\n      dup2\n      mstore\n      0x20\n      add\n      dup3\n      dup1\n      sload\n      tag_63\n      swap1\n      tag_35\n      jump\t// in\n    tag_63:\n      dup1\n      iszero\n      tag_64\n      jumpi\n      dup1\n      0x1f\n      lt\n      tag_65\n      jumpi\n      0x0100\n      dup1\n      dup4\n      sload\n      div\n      mul\n      dup4\n      mstore\n      swap2\n      0x20\n      add\n      swap2\n      jump(tag_64)\n    tag_65:\n      dup3\n      add\n      swap2\n      swap1\n      0x00\n      mstore\n      keccak256(0x00, 0x20)\n      swap1\n    tag_66:\n      dup2\n      sload\n      dup2\n      mstore\n      swap1\n      0x01\n      add\n      swap1\n      0x20\n      add\n      dup1\n      dup4\n      gt\n      tag_66\n      jumpi\n      dup3\n      swap1\n      sub\n      0x1f\n      and\n      dup3\n      add\n      swap2\n    tag_64:\n      pop\n      pop\n      pop\n      pop\n      pop\n      swap1\n      dup1\n      0x01\n      add\n      dup1\n      sload\n      tag_67\n      swap1\n      tag_35\n      jump\t// in\n    tag_67:\n      dup1\n      0x1f\n      add\n      0x20\n      dup1\n      swap2\n      div\n      mul\n      0x20\n      add\n      mload(0x40)\n      swap1\n      dup2\n      add\n      0x40\n      mstore\n      dup1\n      swap3\n      swap2\n      swap1\n      dup2\n      dup2\n      mstore\n      0x20\n      add\n      dup3\n      dup1\n      sload\n      tag_68\n      swap1\n      tag_35\n      jump\t// in\n    tag_68:\n      dup1\n      iszero\n      tag_69\n      jumpi\n      dup1\n      0x1f\n      lt\n      tag_70\n      jumpi\n      0x0100\n      dup1\n      dup4\n      sload\n      div\n      mul\n      dup4\n      mstore\n      swap2\n      0x20\n      add\n      swap2\n      jump(tag_69)\n    tag_70:\n      dup3\n      add\n      swap2\n      swap1\n      0x00\n      mstore\n      keccak256(0x00, 0x20)\n      swap1\n    tag_71:\n      dup2\n      sload\n      dup2\n      mstore\n      swap1\n      0x01\n      add\n      swap1\n      0x20\n      add\n      dup1\n      dup4\n      gt\n      tag_71\n      jumpi\n      dup3\n      swap1\n      sub\n      0x1f\n      and\n      dup3\n      add\n      swap2\n    tag_69:\n      pop\n      pop\n      pop\n      pop\n      pop\n      swap1\n      dup1\n      0x02\n      add\n      dup1\n      sload\n      tag_72\n      swap1\n      tag_35\n      jump\t// in\n    tag_72:\n      dup1\n      0x1f\n      add\n      0x20\n      dup1\n      swap2\n      div\n      mul\n      0x20\n      add\n      mload(0x40)\n      swap1\n      dup2\n      add\n      0x40\n      mstore\n      dup1\n      swap3\n      swap2\n      swap1\n      dup2\n      dup2\n      mstore\n      0x20\n      add\n      dup3\n      dup1\n      sload\n      tag_73\n      swap1\n      tag_35\n      jump\t// in\n    tag_73:\n      dup1\n      iszero\n      tag_74\n      jumpi\n      dup1\n      0x1f\n      lt\n      tag_75\n      jumpi\n      0x0100\n      dup1\n      dup4\n      sload\n      div\n      mul\n      dup4\n      mstore\n      swap2\n      0x20\n      add\n      swap2\n      jump(tag_74)\n    tag_75:\n      dup3\n      add\n      swap2\n      swap1\n      0x00\n      mstore\n      keccak256(0x00, 0x20)\n      swap1\n    tag_76:\n      dup2\n      sload\n      dup2\n      mstore\n      swap1\n      0x01\n      add\n      swap1\n      0x20\n      add\n      dup1\n      dup4\n      gt\n      tag_76\n      jumpi\n      dup3\n      swap1\n      sub\n      0x1f\n      and\n      dup3\n      add\n      swap2\n    tag_74:\n      pop\n      pop\n      pop\n      pop\n      pop\n      swap1\n      dup1\n      0x03\n      add\n      0x00\n      swap1\n      sload\n      swap1\n      0x0100\n      exp\n      swap1\n      div\n      0xffffffffffffffff\n      and\n      swap1\n      dup1\n      0x03\n      add\n      0x08\n      swap1\n      sload\n      swap1\n      0x0100\n      exp\n      swap1\n      div\n      0xff\n      and\n      swap1\n      dup1\n      0x03\n      add\n      0x09\n      swap1\n      sload\n      swap1\n      0x0100\n      exp\n      swap1\n      div\n      0xffffffffffffffff\n      and\n      swap1\n      pop\n      dup7\n      jump\t// out\n        /* \"Certificate Validation With BlockChain/CertificateValidation.sol\":897:1608  function issueCertificate(... */\n    tag_24:\n        /* \"Certificate Validation With BlockChain/CertificateValidation.sol\":724:729  owner */\n      0x00\n      0x00\n      swap1\n      sload\n      swap1\n      0x0100\n      exp\n      swap1\n      div\n      0xffffffffffffffffffffffffffffffffffffffff\n      and\n        /* \"Certificate Validation With BlockChain/CertificateValidation.sol\":710:729  msg.sender == owner */\n      0xffffffffffffffffffffffffffffffffffffffff\n      and\n        /* \"Certificate Validation With BlockChain/CertificateValidation.sol\":710:720  msg.sender */\n      caller\n        /* \"Certificate Validation With BlockChain/CertificateValidation.sol\":710:729  msg.sender == owner */\n      0xffffffffffffffffffffffffffffffffffffffff\n      and\n      eq\n        /* \"Certificate Validation With BlockChain/CertificateValidation.sol\":702:743  require(msg.sender == owner, \"NOT_OWNER\") */\n      tag_78\n      jumpi\n      mload(0x40)\n      0x08c379a000000000000000000000000000000000000000000000000000000000\n      dup2\n      mstore\n      0x04\n      add\n      tag_79\n      swap1\n      tag_32\n      jump\t// in\n    tag_79:\n      mload(0x40)\n      dup1\n      swap2\n      sub\n      swap1\n      revert\n    tag_78:\n        /* \"Certificate Validation With BlockChain/CertificateValidation.sol\":1202:1203  0 */\n      0x00\n        /* \"Certificate Validation With BlockChain/CertificateValidation.sol\":1158:1170  certificates */\n      0x01\n        /* \"Certificate Validation With BlockChain/CertificateValidation.sol\":1158:1178  certificates[certId] */\n      0x00\n        /* \"Certificate Validation With BlockChain/CertificateValidation.sol\":1171:1177  certId */\n      dup10\n        /* \"Certificate Validation With BlockChain/CertificateValidation.sol\":1158:1178  certificates[certId] */\n      dup2\n      mstore\n      0x20\n      add\n      swap1\n      dup2\n      mstore\n      0x20\n      add\n      0x00\n      keccak256\n        /* \"Certificate Validation With BlockChain/CertificateValidation.sol\":1158:1190  certificates[certId].studentName */\n      0x00\n      add\n        /* \"Certificate Validation With BlockChain/CertificateValidation.sol\":1152:1198  bytes(certificates[certId].studentName).length */\n      dup1\n      sload\n      tag_81\n      swap1\n      tag_35\n      jump\t// in\n    tag_81:\n      swap1\n      pop\n        /* \"Certificate Validation With BlockChain/CertificateValidation.sol\":1152:1203  bytes(certificates[certId].studentName).length == 0 */\n      eq\n        /* \"Certificate Validation With BlockChain/CertificateValidation.sol\":1144:1222  require(bytes(certificates[certId].studentName).length == 0, \"ALREADY_EXISTS\") */\n      tag_82\n      jumpi\n      mload(0x40)\n      0x08c379a000000000000000000000000000000000000000000000000000000000\n      dup2\n      mstore\n      0x04\n      add\n      tag_83\n      swap1\n      tag_84\n      jump\t// in\n    tag_83:\n      mload(0x40)\n      dup1\n      swap2\n      sub\n      swap1\n      revert\n    tag_82:\n        /* \"Certificate Validation With BlockChain/CertificateValidation.sol\":1258:1497  Certificate({... */\n      mload(0x40)\n      dup1\n      0xc0\n      add\n      0x40\n      mstore\n      dup1\n        /* \"Certificate Validation With BlockChain/CertificateValidation.sol\":1298:1309  studentName */\n      dup8\n      dup8\n        /* \"Certificate Validation With BlockChain/CertificateValidation.sol\":1258:1497  Certificate({... */\n      dup1\n      dup1\n      0x1f\n      add\n      0x20\n      dup1\n      swap2\n      div\n      mul\n      0x20\n      add\n      mload(0x40)\n      swap1\n      dup2\n      add\n      0x40\n      mstore\n      dup1\n      swap4\n      swap3\n      swap2\n      swap1\n      dup2\n      dup2\n      mstore\n      0x20\n      add\n      dup4\n      dup4\n      dup1\n      dup3\n      dup5\n      calldatacopy\n      0x00\n      dup2\n      dup5\n      add\n      mstore\n      not(0x1f)\n      0x1f\n      dup3\n      add\n      and\n      swap1\n      pop\n      dup1\n      dup4\n      add\n      swap3\n      pop\n      pop\n      pop\n      pop\n      pop\n      pop\n      pop\n      dup2\n      mstore\n      0x20\n      add\n        /* \"Certificate Validation With BlockChain/CertificateValidation.sol\":1336:1346  courseName */\n      dup6\n      dup6\n        /* \"Certificate Validation With BlockChain/CertificateValidation.sol\":1258:1497  Certificate({... */\n      dup1\n      dup1\n      0x1f\n      add\n      0x20\n      dup1\n      swap2\n      div\n      mul\n      0x20\n      add\n      mload(0x40)\n      swap1\n      dup2\n      add\n      0x40\n      mstore\n      dup1\n      swap4\n      swap3\n      swap2\n      swap1\n      dup2\n      dup2\n      mstore\n      0x20\n      add\n      dup4\n      dup4\n      dup1\n      dup3\n      dup5\n      calldatacopy\n      0x00\n      dup2\n      dup5\n      add\n      mstore\n      not(0x1f)\n      0x1f\n      dup3\n      add\n      and\n      swap1\n      pop\n      dup1\n      dup4\n      add\n      swap3\n      pop\n      pop\n      pop\n      pop\n      pop\n      pop\n      pop\n      dup2\n      mstore\n      0x20\n      add\n        /* \"Certificate Validation With BlockChain/CertificateValidation.sol\":1371:1379  ipfsHash */\n      dup4\n      dup4\n        /* \"Certificate Validation With BlockChain/CertificateValidation.sol\":1258:1497  Certificate({... */\n      dup1\n      dup1\n      0x1f\n      add\n      0x20\n      dup1\n      swap2\n      div\n      mul\n      0x20\n      add\n      mload(0x40)\n      swap1\n      dup2\n      add\n      0x40\n      mstore\n      dup1\n      swap4\n      swap3\n      swap2\n      swap1\n      dup2\n      dup2\n      mstore\n      0x20\n      add\n      dup4\n      dup4\n      dup1\n      dup3\n      dup5\n      calldatacopy\n      0x00\n      dup2\n      dup5\n      add\n      mstore\n      not(0x1f)\n      0x1f\n      dup3\n      add\n      and\n      swap1\n      pop\n      dup1\n      dup4\n      add\n      swap3\n      pop\n      pop\n      pop\n      pop\n      pop\n      pop\n      pop\n      dup2\n      mstore\n      0x20\n      add\n        /* \"Certificate Validation With BlockChain/CertificateValidation.sol\":1411:1426  block.timestamp */\n      timestamp\n        /* \"Certificate Validation With BlockChain/CertificateValidation.sol\":1258:1497  Certificate({... */\n      0xffffffffffffffff\n      and\n      dup2\n      mstore\n      0x20\n      add\n        /* \"Certificate Validation With BlockChain/CertificateValidation.sol\":1453:1458  false */\n      0x00\n        /* \"Certificate Validation With BlockChain/CertificateValidation.sol\":1258:1497  Certificate({... */\n      iszero\n      iszero\n      dup2\n      mstore\n      0x20\n      add\n        /* \"Certificate Validation With BlockChain/CertificateValidation.sol\":1484:1485  0 */\n      0x00\n        /* \"Certificate Validation With BlockChain/CertificateValidation.sol\":1258:1497  Certificate({... */\n      0xffffffffffffffff\n      and\n      dup2\n      mstore\n      pop\n        /* \"Certificate Validation With BlockChain/CertificateValidation.sol\":1235:1247  certificates */\n      0x01\n        /* \"Certificate Validation With BlockChain/CertificateValidation.sol\":1235:1255  certificates[certId] */\n      0x00\n        /* \"Certificate Validation With BlockChain/CertificateValidation.sol\":1248:1254  certId */\n      dup10\n        /* \"Certificate Validation With BlockChain/CertificateValidation.sol\":1235:1255  certificates[certId] */\n      dup2\n      mstore\n      0x20\n      add\n      swap1\n      dup2\n      mstore\n      0x20\n      add\n      0x00\n      keccak256\n        /* \"Certificate Validation With BlockChain/CertificateValidation.sol\":1235:1497  certificates[certId] = Certificate({... */\n      0x00\n      dup3\n      add\n      mload\n      dup2\n      0x00\n      add\n      swap1\n      dup2\n      tag_85\n      swap2\n      swap1\n      tag_86\n      jump\t// in\n    tag_85:\n      pop\n      0x20\n      dup3\n      add\n      mload\n      dup2\n      0x01\n      add\n      swap1\n      dup2\n      tag_87\n      swap2\n      swap1\n      tag_86\n      jump\t// in\n    tag_87:\n      pop\n      0x40\n      dup3\n      add\n      mload\n      dup2\n      0x02\n      add\n      swap1\n      dup2\n      tag_88\n      swap2\n      swap1\n      tag_86\n      jump\t// in\n    tag_88:\n      pop\n      0x60\n      dup3\n      add\n      mload\n      dup2\n      0x03\n      add\n      exp(0x0100, 0x00)\n      dup2\n      sload\n      dup2\n      0xffffffffffffffff\n      mul\n      not\n      and\n      swap1\n      dup4\n      0xffffffffffffffff\n      and\n      mul\n      or\n      swap1\n      sstore\n      pop\n      0x80\n      dup3\n      add\n      mload\n      dup2\n      0x03\n      add\n      exp(0x0100, 0x08)\n      dup2\n      sload\n      dup2\n      0xff\n      mul\n      not\n      and\n      swap1\n      dup4\n      iszero\n      iszero\n      mul\n      or\n      swap1\n      sstore\n      pop\n      0xa0\n      dup3\n      add\n      mload\n      dup2\n      0x03\n      add\n      exp(0x0100, 0x09)\n      dup2\n      sload\n      dup2\n      0xffffffffffffffff\n      mul\n      not\n      and\n      swap1\n      dup4\n      0xffffffffffffffff\n      and\n      mul\n      or\n      swap1\n      sstore\n      pop\n      swap1\n      pop\n      pop\n        /* \"Certificate Validation With BlockChain/CertificateValidation.sol\":1533:1539  certId */\n      dup7\n        /* \"Certificate Validation With BlockChain/CertificateValidation.sol\":1515:1600  CertificateIssued(certId, studentName, courseName, ipfsHash, uint64(block.timestamp)) */\n      0xe5a74423ef8536b00921f9fdeab9509bfa75877ffaa5cc38441ddf54c979c901\n        /* \"Certificate Validation With BlockChain/CertificateValidation.sol\":1541:1552  studentName */\n      dup8\n      dup8\n        /* \"Certificate Validation With BlockChain/CertificateValidation.sol\":1554:1564  courseName */\n      dup8\n      dup8\n        /* \"Certificate Validation With BlockChain/CertificateValidation.sol\":1566:1574  ipfsHash */\n      dup8\n      dup8\n        /* \"Certificate Validation With BlockChain/CertificateValidation.sol\":1583:1598  block.timestamp */\n      timestamp\n        /* \"Certificate Validation With BlockChain/CertificateValidation.sol\":1515:1600  CertificateIssued(certId, studentName, courseName, ipfsHash, uint64(block.timestamp)) */\n      mload(0x40)\n      tag_89\n      swap8\n      swap7\n      swap6\n      swap5\n      swap4\n      swap3\n      swap2\n      swap1\n      tag_90\n      jump\t// in\n    tag_89:\n      mload(0x40)\n      dup1\n      swap2\n      sub\n      swap1\n      log2\n        /* \"Certificate Validation With BlockChain/CertificateValidation.sol\":897:1608  function issueCertificate(... */\n      pop\n      pop\n      pop\n      pop\n      pop\n      pop\n      pop\n      jump\t// out\n        /* \"Certificate Validation With BlockChain/CertificateValidation.sol\":99:119  address public owner */\n    tag_26:\n      0x00\n      0x00\n      swap1\n      sload\n      swap1\n      0x0100\n      exp\n      swap1\n      div\n      0xffffffffffffffffffffffffffffffffffffffff\n      and\n      dup2\n      jump\t// out\n        /* \"#utility.yul\":88:205   */\n    tag_92:\n        /* \"#utility.yul\":197:198   */\n      0x00\n        /* \"#utility.yul\":194:195   */\n      0x00\n        /* \"#utility.yul\":187:199   */\n      revert\n        /* \"#utility.yul\":211:328   */\n    tag_93:\n        /* \"#utility.yul\":320:321   */\n      0x00\n        /* \"#utility.yul\":317:318   */\n      0x00\n        /* \"#utility.yul\":310:322   */\n      revert\n        /* \"#utility.yul\":334:411   */\n    tag_94:\n        /* \"#utility.yul\":371:378   */\n      0x00\n        /* \"#utility.yul\":400:405   */\n      dup2\n        /* \"#utility.yul\":389:405   */\n      swap1\n      pop\n        /* \"#utility.yul\":334:411   */\n      swap2\n      swap1\n      pop\n      jump\t// out\n        /* \"#utility.yul\":417:539   */\n    tag_95:\n        /* \"#utility.yul\":490:514   */\n      tag_146\n        /* \"#utility.yul\":508:513   */\n      dup2\n        /* \"#utility.yul\":490:514   */\n      tag_94\n      jump\t// in\n    tag_146:\n        /* \"#utility.yul\":483:488   */\n      dup2\n        /* \"#utility.yul\":480:515   */\n      eq\n        /* \"#utility.yul\":470:533   */\n      tag_147\n      jumpi\n        /* \"#utility.yul\":529:530   */\n      0x00\n        /* \"#utility.yul\":526:527   */\n      0x00\n        /* \"#utility.yul\":519:531   */\n      revert\n        /* \"#utility.yul\":470:533   */\n    tag_147:\n        /* \"#utility.yul\":417:539   */\n      pop\n      jump\t// out\n        /* \"#utility.yul\":545:684   */\n    tag_96:\n        /* \"#utility.yul\":591:596   */\n      0x00\n        /* \"#utility.yul\":629:635   */\n      dup2\n        /* \"#utility.yul\":616:636   */\n      calldataload\n        /* \"#utility.yul\":607:636   */\n      swap1\n      pop\n        /* \"#utility.yul\":645:678   */\n      tag_149\n        /* \"#utility.yul\":672:677   */\n      dup2\n        /* \"#utility.yul\":645:678   */\n      tag_95\n      jump\t// in\n    tag_149:\n        /* \"#utility.yul\":545:684   */\n      swap3\n      swap2\n      pop\n      pop\n      jump\t// out\n        /* \"#utility.yul\":690:1019   */\n    tag_10:\n        /* \"#utility.yul\":749:755   */\n      0x00\n        /* \"#utility.yul\":798:800   */\n      0x20\n        /* \"#utility.yul\":786:795   */\n      dup3\n        /* \"#utility.yul\":777:784   */\n      dup5\n        /* \"#utility.yul\":773:796   */\n      sub\n        /* \"#utility.yul\":769:801   */\n      slt\n        /* \"#utility.yul\":766:885   */\n      iszero\n      tag_151\n      jumpi\n        /* \"#utility.yul\":804:883   */\n      tag_152\n      tag_92\n      jump\t// in\n    tag_152:\n        /* \"#utility.yul\":766:885   */\n    tag_151:\n        /* \"#utility.yul\":924:925   */\n      0x00\n        /* \"#utility.yul\":949:1002   */\n      tag_153\n        /* \"#utility.yul\":994:1001   */\n      dup5\n        /* \"#utility.yul\":985:991   */\n      dup3\n        /* \"#utility.yul\":974:983   */\n      dup6\n        /* \"#utility.yul\":970:992   */\n      add\n        /* \"#utility.yul\":949:1002   */\n      tag_96\n      jump\t// in\n    tag_153:\n        /* \"#utility.yul\":939:1002   */\n      swap2\n      pop\n        /* \"#utility.yul\":895:1012   */\n      pop\n        /* \"#utility.yul\":690:1019   */\n      swap3\n      swap2\n      pop\n      pop\n      jump\t// out\n        /* \"#utility.yul\":1025:1124   */\n    tag_97:\n        /* \"#utility.yul\":1077:1083   */\n      0x00\n        /* \"#utility.yul\":1111:1116   */\n      dup2\n        /* \"#utility.yul\":1105:1117   */\n      mload\n        /* \"#utility.yul\":1095:1117   */\n      swap1\n      pop\n        /* \"#utility.yul\":1025:1124   */\n      swap2\n      swap1\n      pop\n      jump\t// out\n        /* \"#utility.yul\":1130:1299   */\n    tag_98:\n        /* \"#utility.yul\":1214:1225   */\n      0x00\n        /* \"#utility.yul\":1248:1254   */\n      dup3\n        /* \"#utility.yul\":1243:1246   */\n      dup3\n        /* \"#utility.yul\":1236:1255   */\n      mstore\n        /* \"#utility.yul\":1288:1292   */\n      0x20\n        /* \"#utility.yul\":1283:1286   */\n      dup3\n        /* \"#utility.yul\":1279:1293   */\n      add\n        /* \"#utility.yul\":1264:1293   */\n      swap1\n      pop\n        /* \"#utility.yul\":1130:1299   */\n      swap3\n      swap2\n      pop\n      pop\n      jump\t// out\n        /* \"#utility.yul\":1305:1444   */\n    tag_99:\n        /* \"#utility.yul\":1394:1400   */\n      dup3\n        /* \"#utility.yul\":1389:1392   */\n      dup2\n        /* \"#utility.yul\":1384:1387   */\n      dup4\n        /* \"#utility.yul\":1378:1401   */\n      mcopy\n        /* \"#utility.yul\":1435:1436   */\n      0x00\n        /* \"#utility.yul\":1426:1432   */\n      dup4\n        /* \"#utility.yul\":1421:1424   */\n      dup4\n        /* \"#utility.yul\":1417:1433   */\n      add\n        /* \"#utility.yul\":1410:1437   */\n      mstore\n        /* \"#utility.yul\":1305:1444   */\n      pop\n      pop\n      pop\n      jump\t// out\n        /* \"#utility.yul\":1450:1552   */\n    tag_100:\n        /* \"#utility.yul\":1491:1497   */\n      0x00\n        /* \"#utility.yul\":1542:1544   */\n      0x1f\n        /* \"#utility.yul\":1538:1545   */\n      not\n        /* \"#utility.yul\":1533:1535   */\n      0x1f\n        /* \"#utility.yul\":1526:1531   */\n      dup4\n        /* \"#utility.yul\":1522:1536   */\n      add\n        /* \"#utility.yul\":1518:1546   */\n      and\n        /* \"#utility.yul\":1508:1546   */\n      swap1\n      pop\n        /* \"#utility.yul\":1450:1552   */\n      swap2\n      swap1\n      pop\n      jump\t// out\n        /* \"#utility.yul\":1558:1935   */\n    tag_101:\n        /* \"#utility.yul\":1646:1649   */\n      0x00\n        /* \"#utility.yul\":1674:1713   */\n      tag_159\n        /* \"#utility.yul\":1707:1712   */\n      dup3\n        /* \"#utility.yul\":1674:1713   */\n      tag_97\n      jump\t// in\n    tag_159:\n        /* \"#utility.yul\":1729:1800   */\n      tag_160\n        /* \"#utility.yul\":1793:1799   */\n      dup2\n        /* \"#utility.yul\":1788:1791   */\n      dup6\n        /* \"#utility.yul\":1729:1800   */\n      tag_98\n      jump\t// in\n    tag_160:\n        /* \"#utility.yul\":1722:1800   */\n      swap4\n      pop\n        /* \"#utility.yul\":1809:1874   */\n      tag_161\n        /* \"#utility.yul\":1867:1873   */\n      dup2\n        /* \"#utility.yul\":1862:1865   */\n      dup6\n        /* \"#utility.yul\":1855:1859   */\n      0x20\n        /* \"#utility.yul\":1848:1853   */\n      dup7\n        /* \"#utility.yul\":1844:1860   */\n      add\n        /* \"#utility.yul\":1809:1874   */\n      tag_99\n      jump\t// in\n    tag_161:\n        /* \"#utility.yul\":1899:1928   */\n      tag_162\n        /* \"#utility.yul\":1921:1927   */\n      dup2\n        /* \"#utility.yul\":1899:1928   */\n      tag_100\n      jump\t// in\n    tag_162:\n        /* \"#utility.yul\":1894:1897   */\n      dup5\n        /* \"#utility.yul\":1890:1929   */\n      add\n        /* \"#utility.yul\":1883:1929   */\n      swap2\n      pop\n        /* \"#utility.yul\":1650:1935   */\n      pop\n        /* \"#utility.yul\":1558:1935   */\n      swap3\n      swap2\n      pop\n      pop\n      jump\t// out\n        /* \"#utility.yul\":1941:2042   */\n    tag_102:\n        /* \"#utility.yul\":1977:1984   */\n      0x00\n        /* \"#utility.yul\":2017:2035   */\n      0xffffffffffffffff\n        /* \"#utility.yul\":2010:2015   */\n      dup3\n        /* \"#utility.yul\":2006:2036   */\n      and\n        /* \"#utility.yul\":1995:2036   */\n      swap1\n      pop\n        /* \"#utility.yul\":1941:2042   */\n      swap2\n      swap1\n      pop\n      jump\t// out\n        /* \"#utility.yul\":2048:2163   */\n    tag_103:\n        /* \"#utility.yul\":2133:2156   */\n      tag_165\n        /* \"#utility.yul\":2150:2155   */\n      dup2\n        /* \"#utility.yul\":2133:2156   */\n      tag_102\n      jump\t// in\n    tag_165:\n        /* \"#utility.yul\":2128:2131   */\n      dup3\n        /* \"#utility.yul\":2121:2157   */\n      mstore\n        /* \"#utility.yul\":2048:2163   */\n      pop\n      pop\n      jump\t// out\n        /* \"#utility.yul\":2169:2259   */\n    tag_104:\n        /* \"#utility.yul\":2203:2210   */\n      0x00\n        /* \"#utility.yul\":2246:2251   */\n      dup2\n        /* \"#utility.yul\":2239:2252   */\n      iszero\n        /* \"#utility.yul\":2232:2253   */\n      iszero\n        /* \"#utility.yul\":2221:2253   */\n      swap1\n      pop\n        /* \"#utility.yul\":2169:2259   */\n      swap2\n      swap1\n      pop\n      jump\t// out\n        /* \"#utility.yul\":2265:2374   */\n    tag_105:\n        /* \"#utility.yul\":2346:2367   */\n      tag_168\n        /* \"#utility.yul\":2361:2366   */\n      dup2\n        /* \"#utility.yul\":2346:2367   */\n      tag_104\n      jump\t// in\n    tag_168:\n        /* \"#utility.yul\":2341:2344   */\n      dup3\n        /* \"#utility.yul\":2334:2368   */\n      mstore\n        /* \"#utility.yul\":2265:2374   */\n      pop\n      pop\n      jump\t// out\n        /* \"#utility.yul\":2380:3408   */\n    tag_16:\n        /* \"#utility.yul\":2663:2667   */\n      0x00\n        /* \"#utility.yul\":2701:2704   */\n      0xc0\n        /* \"#utility.yul\":2690:2699   */\n      dup3\n        /* \"#utility.yul\":2686:2705   */\n      add\n        /* \"#utility.yul\":2678:2705   */\n      swap1\n      pop\n        /* \"#utility.yul\":2751:2760   */\n      dup2\n        /* \"#utility.yul\":2745:2749   */\n      dup2\n        /* \"#utility.yul\":2741:2761   */\n      sub\n        /* \"#utility.yul\":2737:2738   */\n      0x00\n        /* \"#utility.yul\":2726:2735   */\n      dup4\n        /* \"#utility.yul\":2722:2739   */\n      add\n        /* \"#utility.yul\":2715:2762   */\n      mstore\n        /* \"#utility.yul\":2779:2857   */\n      tag_170\n        /* \"#utility.yul\":2852:2856   */\n      dup2\n        /* \"#utility.yul\":2843:2849   */\n      dup10\n        /* \"#utility.yul\":2779:2857   */\n      tag_101\n      jump\t// in\n    tag_170:\n        /* \"#utility.yul\":2771:2857   */\n      swap1\n      pop\n        /* \"#utility.yul\":2904:2913   */\n      dup2\n        /* \"#utility.yul\":2898:2902   */\n      dup2\n        /* \"#utility.yul\":2894:2914   */\n      sub\n        /* \"#utility.yul\":2889:2891   */\n      0x20\n        /* \"#utility.yul\":2878:2887   */\n      dup4\n        /* \"#utility.yul\":2874:2892   */\n      add\n        /* \"#utility.yul\":2867:2915   */\n      mstore\n        /* \"#utility.yul\":2932:3010   */\n      tag_171\n        /* \"#utility.yul\":3005:3009   */\n      dup2\n        /* \"#utility.yul\":2996:3002   */\n      dup9\n        /* \"#utility.yul\":2932:3010   */\n      tag_101\n      jump\t// in\n    tag_171:\n        /* \"#utility.yul\":2924:3010   */\n      swap1\n      pop\n        /* \"#utility.yul\":3057:3066   */\n      dup2\n        /* \"#utility.yul\":3051:3055   */\n      dup2\n        /* \"#utility.yul\":3047:3067   */\n      sub\n        /* \"#utility.yul\":3042:3044   */\n      0x40\n        /* \"#utility.yul\":3031:3040   */\n      dup4\n        /* \"#utility.yul\":3027:3045   */\n      add\n        /* \"#utility.yul\":3020:3068   */\n      mstore\n        /* \"#utility.yul\":3085:3163   */\n      tag_172\n        /* \"#utility.yul\":3158:3162   */\n      dup2\n        /* \"#utility.yul\":3149:3155   */\n      dup8\n        /* \"#utility.yul\":3085:3163   */\n      tag_101\n      jump\t// in\n    tag_172:\n        /* \"#utility.yul\":3077:3163   */\n      swap1\n      pop\n        /* \"#utility.yul\":3173:3243   */\n      tag_173\n        /* \"#utility.yul\":3239:3241   */\n      0x60\n        /* \"#utility.yul\":3228:3237   */\n      dup4\n        /* \"#utility.yul\":3224:3242   */\n      add\n        /* \"#utility.yul\":3215:3221   */\n      dup7\n        /* \"#utility.yul\":3173:3243   */\n      tag_103\n      jump\t// in\n    tag_173:\n        /* \"#utility.yul\":3253:3320   */\n      tag_174\n        /* \"#utility.yul\":3315:3318   */\n      0x80\n        /* \"#utility.yul\":3304:3313   */\n      dup4\n        /* \"#utility.yul\":3300:3319   */\n      add\n        /* \"#utility.yul\":3291:3297   */\n      dup6\n        /* \"#utility.yul\":3253:3320   */\n      tag_105\n      jump\t// in\n    tag_174:\n        /* \"#utility.yul\":3330:3401   */\n      tag_175\n        /* \"#utility.yul\":3396:3399   */\n      0xa0\n        /* \"#utility.yul\":3385:3394   */\n      dup4\n        /* \"#utility.yul\":3381:3400   */\n      add\n        /* \"#utility.yul\":3372:3378   */\n      dup5\n        /* \"#utility.yul\":3330:3401   */\n      tag_103\n      jump\t// in\n    tag_175:\n        /* \"#utility.yul\":2380:3408   */\n      swap8\n      swap7\n      pop\n      pop\n      pop\n      pop\n      pop\n      pop\n      pop\n      jump\t// out\n        /* \"#utility.yul\":3414:3531   */\n    tag_106:\n        /* \"#utility.yul\":3523:3524   */\n      0x00\n        /* \"#utility.yul\":3520:3521   */\n      0x00\n        /* \"#utility.yul\":3513:3525   */\n      revert\n        /* \"#utility.yul\":3537:3654   */\n    tag_107:\n        /* \"#utility.yul\":3646:3647   */\n      0x00\n        /* \"#utility.yul\":3643:3644   */\n      0x00\n        /* \"#utility.yul\":3636:3648   */\n      revert\n        /* \"#utility.yul\":3660:3777   */\n    tag_108:\n        /* \"#utility.yul\":3769:3770   */\n      0x00\n        /* \"#utility.yul\":3766:3767   */\n      0x00\n        /* \"#utility.yul\":3759:3771   */\n      revert\n        /* \"#utility.yul\":3797:4350   */\n    tag_109:\n        /* \"#utility.yul\":3855:3863   */\n      0x00\n        /* \"#utility.yul\":3865:3871   */\n      0x00\n        /* \"#utility.yul\":3915:3918   */\n      dup4\n        /* \"#utility.yul\":3908:3912   */\n      0x1f\n        /* \"#utility.yul\":3900:3906   */\n      dup5\n        /* \"#utility.yul\":3896:3913   */\n      add\n        /* \"#utility.yul\":3892:3919   */\n      slt\n        /* \"#utility.yul\":3882:4004   */\n      tag_180\n      jumpi\n        /* \"#utility.yul\":3923:4002   */\n      tag_181\n      tag_106\n      jump\t// in\n    tag_181:\n        /* \"#utility.yul\":3882:4004   */\n    tag_180:\n        /* \"#utility.yul\":4036:4042   */\n      dup3\n        /* \"#utility.yul\":4023:4043   */\n      calldataload\n        /* \"#utility.yul\":4013:4043   */\n      swap1\n      pop\n        /* \"#utility.yul\":4066:4084   */\n      0xffffffffffffffff\n        /* \"#utility.yul\":4058:4064   */\n      dup2\n        /* \"#utility.yul\":4055:4085   */\n      gt\n        /* \"#utility.yul\":4052:4169   */\n      iszero\n      tag_182\n      jumpi\n        /* \"#utility.yul\":4088:4167   */\n      tag_183\n      tag_107\n      jump\t// in\n    tag_183:\n        /* \"#utility.yul\":4052:4169   */\n    tag_182:\n        /* \"#utility.yul\":4202:4206   */\n      0x20\n        /* \"#utility.yul\":4194:4200   */\n      dup4\n        /* \"#utility.yul\":4190:4207   */\n      add\n        /* \"#utility.yul\":4178:4207   */\n      swap2\n      pop\n        /* \"#utility.yul\":4256:4259   */\n      dup4\n        /* \"#utility.yul\":4248:4252   */\n      0x01\n        /* \"#utility.yul\":4240:4246   */\n      dup3\n        /* \"#utility.yul\":4236:4253   */\n      mul\n        /* \"#utility.yul\":4226:4234   */\n      dup4\n        /* \"#utility.yul\":4222:4254   */\n      add\n        /* \"#utility.yul\":4219:4260   */\n      gt\n        /* \"#utility.yul\":4216:4344   */\n      iszero\n      tag_184\n      jumpi\n        /* \"#utility.yul\":4263:4342   */\n      tag_185\n      tag_108\n      jump\t// in\n    tag_185:\n        /* \"#utility.yul\":4216:4344   */\n    tag_184:\n        /* \"#utility.yul\":3797:4350   */\n      swap3\n      pop\n      swap3\n      swap1\n      pop\n      jump\t// out\n        /* \"#utility.yul\":4356:5721   */\n    tag_23:\n        /* \"#utility.yul\":4478:4484   */\n      0x00\n        /* \"#utility.yul\":4486:4492   */\n      0x00\n        /* \"#utility.yul\":4494:4500   */\n      0x00\n        /* \"#utility.yul\":4502:4508   */\n      0x00\n        /* \"#utility.yul\":4510:4516   */\n      0x00\n        /* \"#utility.yul\":4518:4524   */\n      0x00\n        /* \"#utility.yul\":4526:4532   */\n      0x00\n        /* \"#utility.yul\":4575:4578   */\n      0x80\n        /* \"#utility.yul\":4563:4572   */\n      dup9\n        /* \"#utility.yul\":4554:4561   */\n      dup11\n        /* \"#utility.yul\":4550:4573   */\n      sub\n        /* \"#utility.yul\":4546:4579   */\n      slt\n        /* \"#utility.yul\":4543:4663   */\n      iszero\n      tag_187\n      jumpi\n        /* \"#utility.yul\":4582:4661   */\n      tag_188\n      tag_92\n      jump\t// in\n    tag_188:\n        /* \"#utility.yul\":4543:4663   */\n    tag_187:\n        /* \"#utility.yul\":4702:4703   */\n      0x00\n        /* \"#utility.yul\":4727:4780   */\n      tag_189\n        /* \"#utility.yul\":4772:4779   */\n      dup11\n        /* \"#utility.yul\":4763:4769   */\n      dup3\n        /* \"#utility.yul\":4752:4761   */\n      dup12\n        /* \"#utility.yul\":4748:4770   */\n      add\n        /* \"#utility.yul\":4727:4780   */\n      tag_96\n      jump\t// in\n    tag_189:\n        /* \"#utility.yul\":4717:4780   */\n      swap8\n      pop\n        /* \"#utility.yul\":4673:4790   */\n      pop\n        /* \"#utility.yul\":4857:4859   */\n      0x20\n        /* \"#utility.yul\":4846:4855   */\n      dup9\n        /* \"#utility.yul\":4842:4860   */\n      add\n        /* \"#utility.yul\":4829:4861   */\n      calldataload\n        /* \"#utility.yul\":4888:4906   */\n      0xffffffffffffffff\n        /* \"#utility.yul\":4880:4886   */\n      dup2\n        /* \"#utility.yul\":4877:4907   */\n      gt\n        /* \"#utility.yul\":4874:4991   */\n      iszero\n      tag_190\n      jumpi\n        /* \"#utility.yul\":4910:4989   */\n      tag_191\n      tag_93\n      jump\t// in\n    tag_191:\n        /* \"#utility.yul\":4874:4991   */\n    tag_190:\n        /* \"#utility.yul\":5023:5088   */\n      tag_192\n        /* \"#utility.yul\":5080:5087   */\n      dup11\n        /* \"#utility.yul\":5071:5077   */\n      dup3\n        /* \"#utility.yul\":5060:5069   */\n      dup12\n        /* \"#utility.yul\":5056:5078   */\n      add\n        /* \"#utility.yul\":5023:5088   */\n      tag_109\n      jump\t// in\n    tag_192:\n        /* \"#utility.yul\":5005:5088   */\n      swap7\n      pop\n      swap7\n      pop\n        /* \"#utility.yul\":4800:5098   */\n      pop\n        /* \"#utility.yul\":5165:5167   */\n      0x40\n        /* \"#utility.yul\":5154:5163   */\n      dup9\n        /* \"#utility.yul\":5150:5168   */\n      add\n        /* \"#utility.yul\":5137:5169   */\n      calldataload\n        /* \"#utility.yul\":5196:5214   */\n      0xffffffffffffffff\n        /* \"#utility.yul\":5188:5194   */\n      dup2\n        /* \"#utility.yul\":5185:5215   */\n      gt\n        /* \"#utility.yul\":5182:5299   */\n      iszero\n      tag_193\n      jumpi\n        /* \"#utility.yul\":5218:5297   */\n      tag_194\n      tag_93\n      jump\t// in\n    tag_194:\n        /* \"#utility.yul\":5182:5299   */\n    tag_193:\n        /* \"#utility.yul\":5331:5396   */\n      tag_195\n        /* \"#utility.yul\":5388:5395   */\n      dup11\n        /* \"#utility.yul\":5379:5385   */\n      dup3\n        /* \"#utility.yul\":5368:5377   */\n      dup12\n        /* \"#utility.yul\":5364:5386   */\n      add\n        /* \"#utility.yul\":5331:5396   */\n      tag_109\n      jump\t// in\n    tag_195:\n        /* \"#utility.yul\":5313:5396   */\n      swap5\n      pop\n      swap5\n      pop\n        /* \"#utility.yul\":5108:5406   */\n      pop\n        /* \"#utility.yul\":5473:5475   */\n      0x60\n        /* \"#utility.yul\":5462:5471   */\n      dup9\n        /* \"#utility.yul\":5458:5476   */\n      add\n        /* \"#utility.yul\":5445:5477   */\n      calldataload\n        /* \"#utility.yul\":5504:5522   */\n      0xffffffffffffffff\n        /* \"#utility.yul\":5496:5502   */\n      dup2\n        /* \"#utility.yul\":5493:5523   */\n      gt\n        /* \"#utility.yul\":5490:5607   */\n      iszero\n      tag_196\n      jumpi\n        /* \"#utility.yul\":5526:5605   */\n      tag_197\n      tag_93\n      jump\t// in\n    tag_197:\n        /* \"#utility.yul\":5490:5607   */\n    tag_196:\n        /* \"#utility.yul\":5639:5704   */\n      tag_198\n        /* \"#utility.yul\":5696:5703   */\n      dup11\n        /* \"#utility.yul\":5687:5693   */\n      dup3\n        /* \"#utility.yul\":5676:5685   */\n      dup12\n        /* \"#utility.yul\":5672:5694   */\n      add\n        /* \"#utility.yul\":5639:5704   */\n      tag_109\n      jump\t// in\n    tag_198:\n        /* \"#utility.yul\":5621:5704   */\n      swap3\n      pop\n      swap3\n      pop\n        /* \"#utility.yul\":5416:5714   */\n      pop\n        /* \"#utility.yul\":4356:5721   */\n      swap3\n      swap6\n      swap9\n      swap2\n      swap5\n      swap8\n      pop\n      swap3\n      swap6\n      pop\n      jump\t// out\n        /* \"#utility.yul\":5727:5853   */\n    tag_110:\n        /* \"#utility.yul\":5764:5771   */\n      0x00\n        /* \"#utility.yul\":5804:5846   */\n      0xffffffffffffffffffffffffffffffffffffffff\n        /* \"#utility.yul\":5797:5802   */\n      dup3\n        /* \"#utility.yul\":5793:5847   */\n      and\n        /* \"#utility.yul\":5782:5847   */\n      swap1\n      pop\n        /* \"#utility.yul\":5727:5853   */\n      swap2\n      swap1\n      pop\n      jump\t// out\n        /* \"#utility.yul\":5859:5955   */\n    tag_111:\n        /* \"#utility.yul\":5896:5903   */\n      0x00\n        /* \"#utility.yul\":5925:5949   */\n      tag_201\n        /* \"#utility.yul\":5943:5948   */\n      dup3\n        /* \"#utility.yul\":5925:5949   */\n      tag_110\n      jump\t// in\n    tag_201:\n        /* \"#utility.yul\":5914:5949   */\n      swap1\n      pop\n        /* \"#utility.yul\":5859:5955   */\n      swap2\n      swap1\n      pop\n      jump\t// out\n        /* \"#utility.yul\":5961:6079   */\n    tag_112:\n        /* \"#utility.yul\":6048:6072   */\n      tag_203\n        /* \"#utility.yul\":6066:6071   */\n      dup2\n        /* \"#utility.yul\":6048:6072   */\n      tag_111\n      jump\t// in\n    tag_203:\n        /* \"#utility.yul\":6043:6046   */\n      dup3\n        /* \"#utility.yul\":6036:6073   */\n      mstore\n        /* \"#utility.yul\":5961:6079   */\n      pop\n      pop\n      jump\t// out\n        /* \"#utility.yul\":6085:6307   */\n    tag_28:\n        /* \"#utility.yul\":6178:6182   */\n      0x00\n        /* \"#utility.yul\":6216:6218   */\n      0x20\n        /* \"#utility.yul\":6205:6214   */\n      dup3\n        /* \"#utility.yul\":6201:6219   */\n      add\n        /* \"#utility.yul\":6193:6219   */\n      swap1\n      pop\n        /* \"#utility.yul\":6229:6300   */\n      tag_205\n        /* \"#utility.yul\":6297:6298   */\n      0x00\n        /* \"#utility.yul\":6286:6295   */\n      dup4\n        /* \"#utility.yul\":6282:6299   */\n      add\n        /* \"#utility.yul\":6273:6279   */\n      dup5\n        /* \"#utility.yul\":6229:6300   */\n      tag_112\n      jump\t// in\n    tag_205:\n        /* \"#utility.yul\":6085:6307   */\n      swap3\n      swap2\n      pop\n      pop\n      jump\t// out\n        /* \"#utility.yul\":6313:6472   */\n    tag_113:\n        /* \"#utility.yul\":6453:6464   */\n      0x4e4f545f4f574e45520000000000000000000000000000000000000000000000\n        /* \"#utility.yul\":6449:6450   */\n      0x00\n        /* \"#utility.yul\":6441:6447   */\n      dup3\n        /* \"#utility.yul\":6437:6451   */\n      add\n        /* \"#utility.yul\":6430:6465   */\n      mstore\n        /* \"#utility.yul\":6313:6472   */\n      pop\n      jump\t// out\n        /* \"#utility.yul\":6478:6843   */\n    tag_114:\n        /* \"#utility.yul\":6620:6623   */\n      0x00\n        /* \"#utility.yul\":6641:6707   */\n      tag_208\n        /* \"#utility.yul\":6705:6706   */\n      0x09\n        /* \"#utility.yul\":6700:6703   */\n      dup4\n        /* \"#utility.yul\":6641:6707   */\n      tag_98\n      jump\t// in\n    tag_208:\n        /* \"#utility.yul\":6634:6707   */\n      swap2\n      pop\n        /* \"#utility.yul\":6716:6809   */\n      tag_209\n        /* \"#utility.yul\":6805:6808   */\n      dup3\n        /* \"#utility.yul\":6716:6809   */\n      tag_113\n      jump\t// in\n    tag_209:\n        /* \"#utility.yul\":6834:6836   */\n      0x20\n        /* \"#utility.yul\":6829:6832   */\n      dup3\n        /* \"#utility.yul\":6825:6837   */\n      add\n        /* \"#utility.yul\":6818:6837   */\n      swap1\n      pop\n        /* \"#utility.yul\":6478:6843   */\n      swap2\n      swap1\n      pop\n      jump\t// out\n        /* \"#utility.yul\":6849:7268   */\n    tag_32:\n        /* \"#utility.yul\":7015:7019   */\n      0x00\n        /* \"#utility.yul\":7053:7055   */\n      0x20\n        /* \"#utility.yul\":7042:7051   */\n      dup3\n        /* \"#utility.yul\":7038:7056   */\n      add\n        /* \"#utility.yul\":7030:7056   */\n      swap1\n      pop\n        /* \"#utility.yul\":7102:7111   */\n      dup2\n        /* \"#utility.yul\":7096:7100   */\n      dup2\n        /* \"#utility.yul\":7092:7112   */\n      sub\n        /* \"#utility.yul\":7088:7089   */\n      0x00\n        /* \"#utility.yul\":7077:7086   */\n      dup4\n        /* \"#utility.yul\":7073:7090   */\n      add\n        /* \"#utility.yul\":7066:7113   */\n      mstore\n        /* \"#utility.yul\":7130:7261   */\n      tag_211\n        /* \"#utility.yul\":7256:7260   */\n      dup2\n        /* \"#utility.yul\":7130:7261   */\n      tag_114\n      jump\t// in\n    tag_211:\n        /* \"#utility.yul\":7122:7261   */\n      swap1\n      pop\n        /* \"#utility.yul\":6849:7268   */\n      swap2\n      swap1\n      pop\n      jump\t// out\n        /* \"#utility.yul\":7274:7454   */\n    tag_115:\n        /* \"#utility.yul\":7322:7399   */\n      0x4e487b7100000000000000000000000000000000000000000000000000000000\n        /* \"#utility.yul\":7319:7320   */\n      0x00\n        /* \"#utility.yul\":7312:7400   */\n      mstore\n        /* \"#utility.yul\":7419:7423   */\n      0x22\n        /* \"#utility.yul\":7416:7417   */\n      0x04\n        /* \"#utility.yul\":7409:7424   */\n      mstore\n        /* \"#utility.yul\":7443:7447   */\n      0x24\n        /* \"#utility.yul\":7440:7441   */\n      0x00\n        /* \"#utility.yul\":7433:7448   */\n      revert\n        /* \"#utility.yul\":7460:7780   */\n    tag_35:\n        /* \"#utility.yul\":7504:7510   */\n      0x00\n        /* \"#utility.yul\":7541:7542   */\n      0x02\n        /* \"#utility.yul\":7535:7539   */\n      dup3\n        /* \"#utility.yul\":7531:7543   */\n      div\n        /* \"#utility.yul\":7521:7543   */\n      swap1\n      pop\n        /* \"#utility.yul\":7588:7589   */\n      0x01\n        /* \"#utility.yul\":7582:7586   */\n      dup3\n        /* \"#utility.yul\":7578:7590   */\n      and\n        /* \"#utility.yul\":7609:7627   */\n      dup1\n        /* \"#utility.yul\":7599:7680   */\n      tag_214\n      jumpi\n        /* \"#utility.yul\":7665:7669   */\n      0x7f\n        /* \"#utility.yul\":7657:7663   */\n      dup3\n        /* \"#utility.yul\":7653:7670   */\n      and\n        /* \"#utility.yul\":7643:7670   */\n      swap2\n      pop\n        /* \"#utility.yul\":7599:7680   */\n    tag_214:\n        /* \"#utility.yul\":7727:7729   */\n      0x20\n        /* \"#utility.yul\":7719:7725   */\n      dup3\n        /* \"#utility.yul\":7716:7730   */\n      lt\n        /* \"#utility.yul\":7696:7714   */\n      dup2\n        /* \"#utility.yul\":7693:7731   */\n      sub\n        /* \"#utility.yul\":7690:7774   */\n      tag_215\n      jumpi\n        /* \"#utility.yul\":7746:7764   */\n      tag_216\n      tag_115\n      jump\t// in\n    tag_216:\n        /* \"#utility.yul\":7690:7774   */\n    tag_215:\n        /* \"#utility.yul\":7511:7780   */\n      pop\n        /* \"#utility.yul\":7460:7780   */\n      swap2\n      swap1\n      pop\n      jump\t// out\n        /* \"#utility.yul\":7786:7945   */\n    tag_116:\n        /* \"#utility.yul\":7926:7937   */\n      0x4e4f545f464f554e440000000000000000000000000000000000000000000000\n        /* \"#utility.yul\":7922:7923   */\n      0x00\n        /* \"#utility.yul\":7914:7920   */\n      dup3\n        /* \"#utility.yul\":7910:7924   */\n      add\n        /* \"#utility.yul\":7903:7938   */\n      mstore\n        /* \"#utility.yul\":7786:7945   */\n      pop\n      jump\t// out\n        /* \"#utility.yul\":7951:8316   */\n    tag_117:\n        /* \"#utility.yul\":8093:8096   */\n      0x00\n        /* \"#utility.yul\":8114:8180   */\n      tag_219\n        /* \"#utility.yul\":8178:8179   */\n      0x09\n        /* \"#utility.yul\":8173:8176   */\n      dup4\n        /* \"#utility.yul\":8114:8180   */\n      tag_98\n      jump\t// in\n    tag_219:\n        /* \"#utility.yul\":8107:8180   */\n      swap2\n      pop\n        /* \"#utility.yul\":8189:8282   */\n      tag_220\n        /* \"#utility.yul\":8278:8281   */\n      dup3\n        /* \"#utility.yul\":8189:8282   */\n      tag_116\n      jump\t// in\n    tag_220:\n        /* \"#utility.yul\":8307:8309   */\n      0x20\n        /* \"#utility.yul\":8302:8305   */\n      dup3\n        /* \"#utility.yul\":8298:8310   */\n      add\n        /* \"#utility.yul\":8291:8310   */\n      swap1\n      pop\n        /* \"#utility.yul\":7951:8316   */\n      swap2\n      swap1\n      pop\n      jump\t// out\n        /* \"#utility.yul\":8322:8741   */\n    tag_38:\n        /* \"#utility.yul\":8488:8492   */\n      0x00\n        /* \"#utility.yul\":8526:8528   */\n      0x20\n        /* \"#utility.yul\":8515:8524   */\n      dup3\n        /* \"#utility.yul\":8511:8529   */\n      add\n        /* \"#utility.yul\":8503:8529   */\n      swap1\n      pop\n        /* \"#utility.yul\":8575:8584   */\n      dup2\n        /* \"#utility.yul\":8569:8573   */\n      dup2\n        /* \"#utility.yul\":8565:8585   */\n      sub\n        /* \"#utility.yul\":8561:8562   */\n      0x00\n        /* \"#utility.yul\":8550:8559   */\n      dup4\n        /* \"#utility.yul\":8546:8563   */\n      add\n        /* \"#utility.yul\":8539:8586   */\n      mstore\n        /* \"#utility.yul\":8603:8734   */\n      tag_222\n        /* \"#utility.yul\":8729:8733   */\n      dup2\n        /* \"#utility.yul\":8603:8734   */\n      tag_117\n      jump\t// in\n    tag_222:\n        /* \"#utility.yul\":8595:8734   */\n      swap1\n      pop\n        /* \"#utility.yul\":8322:8741   */\n      swap2\n      swap1\n      pop\n      jump\t// out\n        /* \"#utility.yul\":8747:8912   */\n    tag_118:\n        /* \"#utility.yul\":8887:8904   */\n      0x414c52454144595f5245564f4b45440000000000000000000000000000000000\n        /* \"#utility.yul\":8883:8884   */\n      0x00\n        /* \"#utility.yul\":8875:8881   */\n      dup3\n        /* \"#utility.yul\":8871:8885   */\n      add\n        /* \"#utility.yul\":8864:8905   */\n      mstore\n        /* \"#utility.yul\":8747:8912   */\n      pop\n      jump\t// out\n        /* \"#utility.yul\":8918:9284   */\n    tag_119:\n        /* \"#utility.yul\":9060:9063   */\n      0x00\n        /* \"#utility.yul\":9081:9148   */\n      tag_225\n        /* \"#utility.yul\":9145:9147   */\n      0x0f\n        /* \"#utility.yul\":9140:9143   */\n      dup4\n        /* \"#utility.yul\":9081:9148   */\n      tag_98\n      jump\t// in\n    tag_225:\n        /* \"#utility.yul\":9074:9148   */\n      swap2\n      pop\n        /* \"#utility.yul\":9157:9250   */\n      tag_226\n        /* \"#utility.yul\":9246:9249   */\n      dup3\n        /* \"#utility.yul\":9157:9250   */\n      tag_118\n      jump\t// in\n    tag_226:\n        /* \"#utility.yul\":9275:9277   */\n      0x20\n        /* \"#utility.yul\":9270:9273   */\n      dup3\n        /* \"#utility.yul\":9266:9278   */\n      add\n        /* \"#utility.yul\":9259:9278   */\n      swap1\n      pop\n        /* \"#utility.yul\":8918:9284   */\n      swap2\n      swap1\n      pop\n      jump\t// out\n        /* \"#utility.yul\":9290:9709   */\n    tag_41:\n        /* \"#utility.yul\":9456:9460   */\n      0x00\n        /* \"#utility.yul\":9494:9496   */\n      0x20\n        /* \"#utility.yul\":9483:9492   */\n      dup3\n        /* \"#utility.yul\":9479:9497   */\n      add\n        /* \"#utility.yul\":9471:9497   */\n      swap1\n      pop\n        /* \"#utility.yul\":9543:9552   */\n      dup2\n        /* \"#utility.yul\":9537:9541   */\n      dup2\n        /* \"#utility.yul\":9533:9553   */\n      sub\n        /* \"#utility.yul\":9529:9530   */\n      0x00\n        /* \"#utility.yul\":9518:9527   */\n      dup4\n        /* \"#utility.yul\":9514:9531   */\n      add\n        /* \"#utility.yul\":9507:9554   */\n      mstore\n        /* \"#utility.yul\":9571:9702   */\n      tag_228\n        /* \"#utility.yul\":9697:9701   */\n      dup2\n        /* \"#utility.yul\":9571:9702   */\n      tag_119\n      jump\t// in\n    tag_228:\n        /* \"#utility.yul\":9563:9702   */\n      swap1\n      pop\n        /* \"#utility.yul\":9290:9709   */\n      swap2\n      swap1\n      pop\n      jump\t// out\n        /* \"#utility.yul\":9715:9933   */\n    tag_43:\n        /* \"#utility.yul\":9806:9810   */\n      0x00\n        /* \"#utility.yul\":9844:9846   */\n      0x20\n        /* \"#utility.yul\":9833:9842   */\n      dup3\n        /* \"#utility.yul\":9829:9847   */\n      add\n        /* \"#utility.yul\":9821:9847   */\n      swap1\n      pop\n        /* \"#utility.yul\":9857:9926   */\n      tag_230\n        /* \"#utility.yul\":9923:9924   */\n      0x00\n        /* \"#utility.yul\":9912:9921   */\n      dup4\n        /* \"#utility.yul\":9908:9925   */\n      add\n        /* \"#utility.yul\":9899:9905   */\n      dup5\n        /* \"#utility.yul\":9857:9926   */\n      tag_103\n      jump\t// in\n    tag_230:\n        /* \"#utility.yul\":9715:9933   */\n      swap3\n      swap2\n      pop\n      pop\n      jump\t// out\n        /* \"#utility.yul\":9939:10103   */\n    tag_120:\n        /* \"#utility.yul\":10079:10095   */\n      0x414c52454144595f455849535453000000000000000000000000000000000000\n        /* \"#utility.yul\":10075:10076   */\n      0x00\n        /* \"#utility.yul\":10067:10073   */\n      dup3\n        /* \"#utility.yul\":10063:10077   */\n      add\n        /* \"#utility.yul\":10056:10096   */\n      mstore\n        /* \"#utility.yul\":9939:10103   */\n      pop\n      jump\t// out\n        /* \"#utility.yul\":10109:10475   */\n    tag_121:\n        /* \"#utility.yul\":10251:10254   */\n      0x00\n        /* \"#utility.yul\":10272:10339   */\n      tag_233\n        /* \"#utility.yul\":10336:10338   */\n      0x0e\n        /* \"#utility.yul\":10331:10334   */\n      dup4\n        /* \"#utility.yul\":10272:10339   */\n      tag_98\n      jump\t// in\n    tag_233:\n        /* \"#utility.yul\":10265:10339   */\n      swap2\n      pop\n        /* \"#utility.yul\":10348:10441   */\n      tag_234\n        /* \"#utility.yul\":10437:10440   */\n      dup3\n        /* \"#utility.yul\":10348:10441   */\n      tag_120\n      jump\t// in\n    tag_234:\n        /* \"#utility.yul\":10466:10468   */\n      0x20\n        /* \"#utility.yul\":10461:10464   */\n      dup3\n        /* \"#utility.yul\":10457:10469   */\n      add\n        /* \"#utility.yul\":10450:10469   */\n      swap1\n      pop\n        /* \"#utility.yul\":10109:10475   */\n      swap2\n      swap1\n      pop\n      jump\t// out\n        /* \"#utility.yul\":10481:10900   */\n    tag_84:\n        /* \"#utility.yul\":10647:10651   */\n      0x00\n        /* \"#utility.yul\":10685:10687   */\n      0x20\n        /* \"#utility.yul\":10674:10683   */\n      dup3\n        /* \"#utility.yul\":10670:10688   */\n      add\n        /* \"#utility.yul\":10662:10688   */\n      swap1\n      pop\n        /* \"#utility.yul\":10734:10743   */\n      dup2\n        /* \"#utility.yul\":10728:10732   */\n      dup2\n        /* \"#utility.yul\":10724:10744   */\n      sub\n        /* \"#utility.yul\":10720:10721   */\n      0x00\n        /* \"#utility.yul\":10709:10718   */\n      dup4\n        /* \"#utility.yul\":10705:10722   */\n      add\n        /* \"#utility.yul\":10698:10745   */\n      mstore\n        /* \"#utility.yul\":10762:10893   */\n      tag_236\n        /* \"#utility.yul\":10888:10892   */\n      dup2\n        /* \"#utility.yul\":10762:10893   */\n      tag_121\n      jump\t// in\n    tag_236:\n        /* \"#utility.yul\":10754:10893   */\n      swap1\n      pop\n        /* \"#utility.yul\":10481:10900   */\n      swap2\n      swap1\n      pop\n      jump\t// out\n        /* \"#utility.yul\":10906:11086   */\n    tag_122:\n        /* \"#utility.yul\":10954:11031   */\n      0x4e487b7100000000000000000000000000000000000000000000000000000000\n        /* \"#utility.yul\":10951:10952   */\n      0x00\n        /* \"#utility.yul\":10944:11032   */\n      mstore\n        /* \"#utility.yul\":11051:11055   */\n      0x41\n        /* \"#utility.yul\":11048:11049   */\n      0x04\n        /* \"#utility.yul\":11041:11056   */\n      mstore\n        /* \"#utility.yul\":11075:11079   */\n      0x24\n        /* \"#utility.yul\":11072:11073   */\n      0x00\n        /* \"#utility.yul\":11065:11080   */\n      revert\n        /* \"#utility.yul\":11092:11233   */\n    tag_123:\n        /* \"#utility.yul\":11141:11145   */\n      0x00\n        /* \"#utility.yul\":11164:11167   */\n      dup2\n        /* \"#utility.yul\":11156:11167   */\n      swap1\n      pop\n        /* \"#utility.yul\":11187:11190   */\n      dup2\n        /* \"#utility.yul\":11184:11185   */\n      0x00\n        /* \"#utility.yul\":11177:11191   */\n      mstore\n        /* \"#utility.yul\":11221:11225   */\n      0x20\n        /* \"#utility.yul\":11218:11219   */\n      0x00\n        /* \"#utility.yul\":11208:11226   */\n      keccak256\n        /* \"#utility.yul\":11200:11226   */\n      swap1\n      pop\n        /* \"#utility.yul\":11092:11233   */\n      swap2\n      swap1\n      pop\n      jump\t// out\n        /* \"#utility.yul\":11239:11332   */\n    tag_124:\n        /* \"#utility.yul\":11276:11282   */\n      0x00\n        /* \"#utility.yul\":11323:11325   */\n      0x20\n        /* \"#utility.yul\":11318:11320   */\n      0x1f\n        /* \"#utility.yul\":11311:11316   */\n      dup4\n        /* \"#utility.yul\":11307:11321   */\n      add\n        /* \"#utility.yul\":11303:11326   */\n      div\n        /* \"#utility.yul\":11293:11326   */\n      swap1\n      pop\n        /* \"#utility.yul\":11239:11332   */\n      swap2\n      swap1\n      pop\n      jump\t// out\n        /* \"#utility.yul\":11338:11445   */\n    tag_125:\n        /* \"#utility.yul\":11382:11390   */\n      0x00\n        /* \"#utility.yul\":11432:11437   */\n      dup3\n        /* \"#utility.yul\":11426:11430   */\n      dup3\n        /* \"#utility.yul\":11422:11438   */\n      shl\n        /* \"#utility.yul\":11401:11438   */\n      swap1\n      pop\n        /* \"#utility.yul\":11338:11445   */\n      swap3\n      swap2\n      pop\n      pop\n      jump\t// out\n        /* \"#utility.yul\":11451:11844   */\n    tag_126:\n        /* \"#utility.yul\":11520:11526   */\n      0x00\n        /* \"#utility.yul\":11570:11571   */\n      0x08\n        /* \"#utility.yul\":11558:11568   */\n      dup4\n        /* \"#utility.yul\":11554:11572   */\n      mul\n        /* \"#utility.yul\":11593:11690   */\n      tag_242\n        /* \"#utility.yul\":11623:11689   */\n      0xffffffffffffffffffffffffffffffffffffffffffffffffffffffffffffffff\n        /* \"#utility.yul\":11612:11621   */\n      dup3\n        /* \"#utility.yul\":11593:11690   */\n      tag_125\n      jump\t// in\n    tag_242:\n        /* \"#utility.yul\":11711:11750   */\n      tag_243\n        /* \"#utility.yul\":11741:11749   */\n      dup7\n        /* \"#utility.yul\":11730:11739   */\n      dup4\n        /* \"#utility.yul\":11711:11750   */\n      tag_125\n      jump\t// in\n    tag_243:\n        /* \"#utility.yul\":11699:11750   */\n      swap6\n      pop\n        /* \"#utility.yul\":11783:11787   */\n      dup1\n        /* \"#utility.yul\":11779:11788   */\n      not\n        /* \"#utility.yul\":11772:11777   */\n      dup5\n        /* \"#utility.yul\":11768:11789   */\n      and\n        /* \"#utility.yul\":11759:11789   */\n      swap4\n      pop\n        /* \"#utility.yul\":11832:11836   */\n      dup1\n        /* \"#utility.yul\":11822:11830   */\n      dup7\n        /* \"#utility.yul\":11818:11837   */\n      and\n        /* \"#utility.yul\":11811:11816   */\n      dup5\n        /* \"#utility.yul\":11808:11838   */\n      or\n        /* \"#utility.yul\":11798:11838   */\n      swap3\n      pop\n        /* \"#utility.yul\":11527:11844   */\n      pop\n      pop\n        /* \"#utility.yul\":11451:11844   */\n      swap4\n      swap3\n      pop\n      pop\n      pop\n      jump\t// out\n        /* \"#utility.yul\":11850:11910   */\n    tag_127:\n        /* \"#utility.yul\":11878:11881   */\n      0x00\n        /* \"#utility.yul\":11899:11904   */\n      dup2\n        /* \"#utility.yul\":11892:11904   */\n      swap1\n      pop\n        /* \"#utility.yul\":11850:11910   */\n      swap2\n      swap1\n      pop\n      jump\t// out\n        /* \"#utility.yul\":11916:12058   */\n    tag_128:\n        /* \"#utility.yul\":11966:11975   */\n      0x00\n        /* \"#utility.yul\":11999:12052   */\n      tag_246\n        /* \"#utility.yul\":12017:12051   */\n      tag_247\n        /* \"#utility.yul\":12026:12050   */\n      tag_248\n        /* \"#utility.yul\":12044:12049   */\n      dup5\n        /* \"#utility.yul\":12026:12050   */\n      tag_94\n      jump\t// in\n    tag_248:\n        /* \"#utility.yul\":12017:12051   */\n      tag_127\n      jump\t// in\n    tag_247:\n        /* \"#utility.yul\":11999:12052   */\n      tag_94\n      jump\t// in\n    tag_246:\n        /* \"#utility.yul\":11986:12052   */\n      swap1\n      pop\n        /* \"#utility.yul\":11916:12058   */\n      swap2\n      swap1\n      pop\n      jump\t// out\n        /* \"#utility.yul\":12064:12139   */\n    tag_129:\n        /* \"#utility.yul\":12107:12110   */\n      0x00\n        /* \"#utility.yul\":12128:12133   */\n      dup2\n        /* \"#utility.yul\":12121:12133   */\n      swap1\n      pop\n        /* \"#utility.yul\":12064:12139   */\n      swap2\n      swap1\n      pop\n      jump\t// out\n        /* \"#utility.yul\":12145:12414   */\n    tag_130:\n        /* \"#utility.yul\":12255:12294   */\n      tag_251\n        /* \"#utility.yul\":12286:12293   */\n      dup4\n        /* \"#utility.yul\":12255:12294   */\n      tag_128\n      jump\t// in\n    tag_251:\n        /* \"#utility.yul\":12316:12407   */\n      tag_252\n        /* \"#utility.yul\":12365:12406   */\n      tag_253\n        /* \"#utility.yul\":12389:12405   */\n      dup3\n        /* \"#utility.yul\":12365:12406   */\n      tag_129\n      jump\t// in\n    tag_253:\n        /* \"#utility.yul\":12357:12363   */\n      dup5\n        /* \"#utility.yul\":12350:12354   */\n      dup5\n        /* \"#utility.yul\":12344:12355   */\n      sload\n        /* \"#utility.yul\":12316:12407   */\n      tag_126\n      jump\t// in\n    tag_252:\n        /* \"#utility.yul\":12310:12314   */\n      dup3\n        /* \"#utility.yul\":12303:12408   */\n      sstore\n        /* \"#utility.yul\":12221:12414   */\n      pop\n        /* \"#utility.yul\":12145:12414   */\n      pop\n      pop\n      pop\n      jump\t// out\n        /* \"#utility.yul\":12420:12493   */\n    tag_131:\n        /* \"#utility.yul\":12465:12468   */\n      0x00\n        /* \"#utility.yul\":12486:12487   */\n      0x00\n        /* \"#utility.yul\":12479:12487   */\n      swap1\n      pop\n        /* \"#utility.yul\":12420:12493   */\n      swap1\n      jump\t// out\n        /* \"#utility.yul\":12499:12688   */\n    tag_132:\n        /* \"#utility.yul\":12576:12608   */\n      tag_256\n      tag_131\n      jump\t// in\n    tag_256:\n        /* \"#utility.yul\":12617:12682   */\n      tag_257\n        /* \"#utility.yul\":12675:12681   */\n      dup2\n        /* \"#utility.yul\":12667:12673   */\n      dup5\n        /* \"#utility.yul\":12661:12665   */\n      dup5\n        /* \"#utility.yul\":12617:12682   */\n      tag_130\n      jump\t// in\n    tag_257:\n        /* \"#utility.yul\":12552:12688   */\n      pop\n        /* \"#utility.yul\":12499:12688   */\n      pop\n      pop\n      jump\t// out\n        /* \"#utility.yul\":12694:12880   */\n    tag_133:\n        /* \"#utility.yul\":12754:12874   */\n    tag_259:\n        /* \"#utility.yul\":12771:12774   */\n      dup2\n        /* \"#utility.yul\":12764:12769   */\n      dup2\n        /* \"#utility.yul\":12761:12775   */\n      lt\n        /* \"#utility.yul\":12754:12874   */\n      iszero\n      tag_261\n      jumpi\n        /* \"#utility.yul\":12825:12864   */\n      tag_262\n        /* \"#utility.yul\":12862:12863   */\n      0x00\n        /* \"#utility.yul\":12855:12860   */\n      dup3\n        /* \"#utility.yul\":12825:12864   */\n      tag_132\n      jump\t// in\n    tag_262:\n        /* \"#utility.yul\":12798:12799   */\n      0x01\n        /* \"#utility.yul\":12791:12796   */\n      dup2\n        /* \"#utility.yul\":12787:12800   */\n      add\n        /* \"#utility.yul\":12778:12800   */\n      swap1\n      pop\n        /* \"#utility.yul\":12754:12874   */\n      jump(tag_259)\n    tag_261:\n        /* \"#utility.yul\":12694:12880   */\n      pop\n      pop\n      jump\t// out\n        /* \"#utility.yul\":12886:13429   */\n    tag_134:\n        /* \"#utility.yul\":12987:12989   */\n      0x1f\n        /* \"#utility.yul\":12982:12985   */\n      dup3\n        /* \"#utility.yul\":12979:12990   */\n      gt\n        /* \"#utility.yul\":12976:13422   */\n      iszero\n      tag_264\n      jumpi\n        /* \"#utility.yul\":13021:13059   */\n      tag_265\n        /* \"#utility.yul\":13053:13058   */\n      dup2\n        /* \"#utility.yul\":13021:13059   */\n      tag_123\n      jump\t// in\n    tag_265:\n        /* \"#utility.yul\":13105:13134   */\n      tag_266\n        /* \"#utility.yul\":13123:13133   */\n      dup5\n        /* \"#utility.yul\":13105:13134   */\n      tag_124\n      jump\t// in\n    tag_266:\n        /* \"#utility.yul\":13095:13103   */\n      dup2\n        /* \"#utility.yul\":13091:13135   */\n      add\n        /* \"#utility.yul\":13288:13290   */\n      0x20\n        /* \"#utility.yul\":13276:13286   */\n      dup6\n        /* \"#utility.yul\":13273:13291   */\n      lt\n        /* \"#utility.yul\":13270:13319   */\n      iszero\n      tag_267\n      jumpi\n        /* \"#utility.yul\":13309:13317   */\n      dup2\n        /* \"#utility.yul\":13294:13317   */\n      swap1\n      pop\n        /* \"#utility.yul\":13270:13319   */\n    tag_267:\n        /* \"#utility.yul\":13332:13412   */\n      tag_268\n        /* \"#utility.yul\":13388:13410   */\n      tag_269\n        /* \"#utility.yul\":13406:13409   */\n      dup6\n        /* \"#utility.yul\":13388:13410   */\n      tag_124\n      jump\t// in\n    tag_269:\n        /* \"#utility.yul\":13378:13386   */\n      dup4\n        /* \"#utility.yul\":13374:13411   */\n      add\n        /* \"#utility.yul\":13361:13372   */\n      dup3\n        /* \"#utility.yul\":13332:13412   */\n      tag_133\n      jump\t// in\n    tag_268:\n        /* \"#utility.yul\":12991:13422   */\n      pop\n      pop\n        /* \"#utility.yul\":12976:13422   */\n    tag_264:\n        /* \"#utility.yul\":12886:13429   */\n      pop\n      pop\n      pop\n      jump\t// out\n        /* \"#utility.yul\":13435:13552   */\n    tag_135:\n        /* \"#utility.yul\":13489:13497   */\n      0x00\n        /* \"#utility.yul\":13539:13544   */\n      dup3\n        /* \"#utility.yul\":13533:13537   */\n      dup3\n        /* \"#utility.yul\":13529:13545   */\n      shr\n        /* \"#utility.yul\":13508:13545   */\n      swap1\n      pop\n        /* \"#utility.yul\":13435:13552   */\n      swap3\n      swap2\n      pop\n      pop\n      jump\t// out\n        /* \"#utility.yul\":13558:13727   */\n    tag_136:\n        /* \"#utility.yul\":13602:13608   */\n      0x00\n        /* \"#utility.yul\":13635:13686   */\n      tag_272\n        /* \"#utility.yul\":13683:13684   */\n      0x00\n        /* \"#utility.yul\":13679:13685   */\n      not\n        /* \"#utility.yul\":13671:13676   */\n      dup5\n        /* \"#utility.yul\":13668:13669   */\n      0x08\n        /* \"#utility.yul\":13664:13677   */\n      mul\n        /* \"#utility.yul\":13635:13686   */\n      tag_135\n      jump\t// in\n    tag_272:\n        /* \"#utility.yul\":13631:13687   */\n      not\n        /* \"#utility.yul\":13716:13720   */\n      dup1\n        /* \"#utility.yul\":13710:13714   */\n      dup4\n        /* \"#utility.yul\":13706:13721   */\n      and\n        /* \"#utility.yul\":13696:13721   */\n      swap2\n      pop\n        /* \"#utility.yul\":13609:13727   */\n      pop\n        /* \"#utility.yul\":13558:13727   */\n      swap3\n      swap2\n      pop\n      pop\n      jump\t// out\n        /* \"#utility.yul\":13732:14027   */\n    tag_137:\n        /* \"#utility.yul\":13808:13812   */\n      0x00\n        /* \"#utility.yul\":13954:13983   */\n      tag_274\n        /* \"#utility.yul\":13979:13982   */\n      dup4\n        /* \"#utility.yul\":13973:13977   */\n      dup4\n        /* \"#utility.yul\":13954:13983   */\n      tag_136\n      jump\t// in\n    tag_274:\n        /* \"#utility.yul\":13946:13983   */\n      swap2\n      pop\n        /* \"#utility.yul\":14016:14019   */\n      dup3\n        /* \"#utility.yul\":14013:14014   */\n      0x02\n        /* \"#utility.yul\":14009:14020   */\n      mul\n        /* \"#utility.yul\":14003:14007   */\n      dup3\n        /* \"#utility.yul\":14000:14021   */\n      or\n        /* \"#utility.yul\":13992:14021   */\n      swap1\n      pop\n        /* \"#utility.yul\":13732:14027   */\n      swap3\n      swap2\n      pop\n      pop\n      jump\t// out\n        /* \"#utility.yul\":14032:15427   */\n    tag_86:\n        /* \"#utility.yul\":14149:14186   */\n      tag_276\n        /* \"#utility.yul\":14182:14185   */\n      dup3\n        /* \"#utility.yul\":14149:14186   */\n      tag_97\n      jump\t// in\n    tag_276:\n        /* \"#utility.yul\":14251:14269   */\n      0xffffffffffffffff\n        /* \"#utility.yul\":14243:14249   */\n      dup2\n        /* \"#utility.yul\":14240:14270   */\n      gt\n        /* \"#utility.yul\":14237:14293   */\n      iszero\n      tag_277\n      jumpi\n        /* \"#utility.yul\":14273:14291   */\n      tag_278\n      tag_122\n      jump\t// in\n    tag_278:\n        /* \"#utility.yul\":14237:14293   */\n    tag_277:\n        /* \"#utility.yul\":14317:14355   */\n      tag_279\n        /* \"#utility.yul\":14349:14353   */\n      dup3\n        /* \"#utility.yul\":14343:14354   */\n      sload\n        /* \"#utility.yul\":14317:14355   */\n      tag_35\n      jump\t// in\n    tag_279:\n        /* \"#utility.yul\":14402:14469   */\n      tag_280\n        /* \"#utility.yul\":14462:14468   */\n      dup3\n        /* \"#utility.yul\":14454:14460   */\n      dup3\n        /* \"#utility.yul\":14448:14452   */\n      dup6\n        /* \"#utility.yul\":14402:14469   */\n      tag_134\n      jump\t// in\n    tag_280:\n        /* \"#utility.yul\":14496:14497   */\n      0x00\n        /* \"#utility.yul\":14520:14524   */\n      0x20\n        /* \"#utility.yul\":14507:14524   */\n      swap1\n      pop\n        /* \"#utility.yul\":14552:14554   */\n      0x1f\n        /* \"#utility.yul\":14544:14550   */\n      dup4\n        /* \"#utility.yul\":14541:14555   */\n      gt\n        /* \"#utility.yul\":14569:14570   */\n      0x01\n        /* \"#utility.yul\":14564:15182   */\n      dup2\n      eq\n      tag_282\n      jumpi\n        /* \"#utility.yul\":15226:15227   */\n      0x00\n        /* \"#utility.yul\":15243:15249   */\n      dup5\n        /* \"#utility.yul\":15240:15317   */\n      iszero\n      tag_283\n      jumpi\n        /* \"#utility.yul\":15292:15301   */\n      dup3\n        /* \"#utility.yul\":15287:15290   */\n      dup8\n        /* \"#utility.yul\":15283:15302   */\n      add\n        /* \"#utility.yul\":15277:15303   */\n      mload\n        /* \"#utility.yul\":15268:15303   */\n      swap1\n      pop\n        /* \"#utility.yul\":15240:15317   */\n    tag_283:\n        /* \"#utility.yul\":15343:15410   */\n      tag_284\n        /* \"#utility.yul\":15403:15409   */\n      dup6\n        /* \"#utility.yul\":15396:15401   */\n      dup3\n        /* \"#utility.yul\":15343:15410   */\n      tag_137\n      jump\t// in\n    tag_284:\n        /* \"#utility.yul\":15337:15341   */\n      dup7\n        /* \"#utility.yul\":15330:15411   */\n      sstore\n        /* \"#utility.yul\":15199:15421   */\n      pop\n        /* \"#utility.yul\":14534:15421   */\n      jump(tag_281)\n        /* \"#utility.yul\":14564:15182   */\n    tag_282:\n        /* \"#utility.yul\":14616:14620   */\n      0x1f\n        /* \"#utility.yul\":14612:14621   */\n      not\n        /* \"#utility.yul\":14604:14610   */\n      dup5\n        /* \"#utility.yul\":14600:14622   */\n      and\n        /* \"#utility.yul\":14650:14687   */\n      tag_285\n        /* \"#utility.yul\":14682:14686   */\n      dup7\n        /* \"#utility.yul\":14650:14687   */\n      tag_123\n      jump\t// in\n    tag_285:\n        /* \"#utility.yul\":14709:14710   */\n      0x00\n        /* \"#utility.yul\":14723:14931   */\n    tag_286:\n        /* \"#utility.yul\":14737:14744   */\n      dup3\n        /* \"#utility.yul\":14734:14735   */\n      dup2\n        /* \"#utility.yul\":14731:14745   */\n      lt\n        /* \"#utility.yul\":14723:14931   */\n      iszero\n      tag_288\n      jumpi\n        /* \"#utility.yul\":14816:14825   */\n      dup5\n        /* \"#utility.yul\":14811:14814   */\n      dup10\n        /* \"#utility.yul\":14807:14826   */\n      add\n        /* \"#utility.yul\":14801:14827   */\n      mload\n        /* \"#utility.yul\":14793:14799   */\n      dup3\n        /* \"#utility.yul\":14786:14828   */\n      sstore\n        /* \"#utility.yul\":14867:14868   */\n      0x01\n        /* \"#utility.yul\":14859:14865   */\n      dup3\n        /* \"#utility.yul\":14855:14869   */\n      add\n        /* \"#utility.yul\":14845:14869   */\n      swap2\n      pop\n        /* \"#utility.yul\":14914:14916   */\n      0x20\n        /* \"#utility.yul\":14903:14912   */\n      dup6\n        /* \"#utility.yul\":14899:14917   */\n      add\n        /* \"#utility.yul\":14886:14917   */\n      swap5\n      pop\n        /* \"#utility.yul\":14760:14764   */\n      0x20\n        /* \"#utility.yul\":14757:14758   */\n      dup2\n        /* \"#utility.yul\":14753:14765   */\n      add\n        /* \"#utility.yul\":14748:14765   */\n      swap1\n      pop\n        /* \"#utility.yul\":14723:14931   */\n      jump(tag_286)\n    tag_288:\n        /* \"#utility.yul\":14959:14965   */\n      dup7\n        /* \"#utility.yul\":14950:14957   */\n      dup4\n        /* \"#utility.yul\":14947:14966   */\n      lt\n        /* \"#utility.yul\":14944:15123   */\n      iszero\n      tag_289\n      jumpi\n        /* \"#utility.yul\":15017:15026   */\n      dup5\n        /* \"#utility.yul\":15012:15015   */\n      dup10\n        /* \"#utility.yul\":15008:15027   */\n      add\n        /* \"#utility.yul\":15002:15028   */\n      mload\n        /* \"#utility.yul\":15060:15108   */\n      tag_290\n        /* \"#utility.yul\":15102:15106   */\n      0x1f\n        /* \"#utility.yul\":15094:15100   */\n      dup10\n        /* \"#utility.yul\":15090:15107   */\n      and\n        /* \"#utility.yul\":15079:15088   */\n      dup3\n        /* \"#utility.yul\":15060:15108   */\n      tag_136\n      jump\t// in\n    tag_290:\n        /* \"#utility.yul\":15052:15058   */\n      dup4\n        /* \"#utility.yul\":15045:15109   */\n      sstore\n        /* \"#utility.yul\":14967:15123   */\n      pop\n        /* \"#utility.yul\":14944:15123   */\n    tag_289:\n        /* \"#utility.yul\":15169:15170   */\n      0x01\n        /* \"#utility.yul\":15165:15166   */\n      0x02\n        /* \"#utility.yul\":15157:15163   */\n      dup9\n        /* \"#utility.yul\":15153:15167   */\n      mul\n        /* \"#utility.yul\":15149:15171   */\n      add\n        /* \"#utility.yul\":15143:15147   */\n      dup9\n        /* \"#utility.yul\":15136:15172   */\n      sstore\n        /* \"#utility.yul\":14571:15182   */\n      pop\n      pop\n      pop\n        /* \"#utility.yul\":14534:15421   */\n    tag_281:\n      pop\n        /* \"#utility.yul\":14124:15427   */\n      pop\n      pop\n      pop\n        /* \"#utility.yul\":14032:15427   */\n      pop\n      pop\n      jump\t// out\n        /* \"#utility.yul\":15433:15581   */\n    tag_138:\n        /* \"#utility.yul\":15531:15537   */\n      dup3\n        /* \"#utility.yul\":15526:15529   */\n      dup2\n        /* \"#utility.yul\":15521:15524   */\n      dup4\n        /* \"#utility.yul\":15508:15538   */\n      calldatacopy\n        /* \"#utility.yul\":15572:15573   */\n      0x00\n        /* \"#utility.yul\":15563:15569   */\n      dup4\n        /* \"#utility.yul\":15558:15561   */\n      dup4\n        /* \"#utility.yul\":15554:15570   */\n      add\n        /* \"#utility.yul\":15547:15574   */\n      mstore\n        /* \"#utility.yul\":15433:15581   */\n      pop\n      pop\n      pop\n      jump\t// out\n        /* \"#utility.yul\":15611:15928   */\n    tag_139:\n        /* \"#utility.yul\":15709:15712   */\n      0x00\n        /* \"#utility.yul\":15730:15801   */\n      tag_293\n        /* \"#utility.yul\":15794:15800   */\n      dup4\n        /* \"#utility.yul\":15789:15792   */\n      dup6\n        /* \"#utility.yul\":15730:15801   */\n      tag_98\n      jump\t// in\n    tag_293:\n        /* \"#utility.yul\":15723:15801   */\n      swap4\n      pop\n        /* \"#utility.yul\":15811:15867   */\n      tag_294\n        /* \"#utility.yul\":15860:15866   */\n      dup4\n        /* \"#utility.yul\":15855:15858   */\n      dup6\n        /* \"#utility.yul\":15848:15853   */\n      dup5\n        /* \"#utility.yul\":15811:15867   */\n      tag_138\n      jump\t// in\n    tag_294:\n        /* \"#utility.yul\":15892:15921   */\n      tag_295\n        /* \"#utility.yul\":15914:15920   */\n      dup4\n        /* \"#utility.yul\":15892:15921   */\n      tag_100\n      jump\t// in\n    tag_295:\n        /* \"#utility.yul\":15887:15890   */\n      dup5\n        /* \"#utility.yul\":15883:15922   */\n      add\n        /* \"#utility.yul\":15876:15922   */\n      swap1\n      pop\n        /* \"#utility.yul\":15611:15928   */\n      swap4\n      swap3\n      pop\n      pop\n      pop\n      jump\t// out\n        /* \"#utility.yul\":15934:16816   */\n    tag_90:\n        /* \"#utility.yul\":16199:16203   */\n      0x00\n        /* \"#utility.yul\":16237:16240   */\n      0x80\n        /* \"#utility.yul\":16226:16235   */\n      dup3\n        /* \"#utility.yul\":16222:16241   */\n      add\n        /* \"#utility.yul\":16214:16241   */\n      swap1\n      pop\n        /* \"#utility.yul\":16287:16296   */\n      dup2\n        /* \"#utility.yul\":16281:16285   */\n      dup2\n        /* \"#utility.yul\":16277:16297   */\n      sub\n        /* \"#utility.yul\":16273:16274   */\n      0x00\n        /* \"#utility.yul\":16262:16271   */\n      dup4\n        /* \"#utility.yul\":16258:16275   */\n      add\n        /* \"#utility.yul\":16251:16298   */\n      mstore\n        /* \"#utility.yul\":16315:16403   */\n      tag_297\n        /* \"#utility.yul\":16398:16402   */\n      dup2\n        /* \"#utility.yul\":16389:16395   */\n      dup10\n        /* \"#utility.yul\":16381:16387   */\n      dup12\n        /* \"#utility.yul\":16315:16403   */\n      tag_139\n      jump\t// in\n    tag_297:\n        /* \"#utility.yul\":16307:16403   */\n      swap1\n      pop\n        /* \"#utility.yul\":16450:16459   */\n      dup2\n        /* \"#utility.yul\":16444:16448   */\n      dup2\n        /* \"#utility.yul\":16440:16460   */\n      sub\n        /* \"#utility.yul\":16435:16437   */\n      0x20\n        /* \"#utility.yul\":16424:16433   */\n      dup4\n        /* \"#utility.yul\":16420:16438   */\n      add\n        /* \"#utility.yul\":16413:16461   */\n      mstore\n        /* \"#utility.yul\":16478:16566   */\n      tag_298\n        /* \"#utility.yul\":16561:16565   */\n      dup2\n        /* \"#utility.yul\":16552:16558   */\n      dup8\n        /* \"#utility.yul\":16544:16550   */\n      dup10\n        /* \"#utility.yul\":16478:16566   */\n      tag_139\n      jump\t// in\n    tag_298:\n        /* \"#utility.yul\":16470:16566   */\n      swap1\n      pop\n        /* \"#utility.yul\":16613:16622   */\n      dup2\n        /* \"#utility.yul\":16607:16611   */\n      dup2\n        /* \"#utility.yul\":16603:16623   */\n      sub\n        /* \"#utility.yul\":16598:16600   */\n      0x40\n        /* \"#utility.yul\":16587:16596   */\n      dup4\n        /* \"#utility.yul\":16583:16601   */\n      add\n        /* \"#utility.yul\":16576:16624   */\n      mstore\n        /* \"#utility.yul\":16641:16729   */\n      tag_299\n        /* \"#utility.yul\":16724:16728   */\n      dup2\n        /* \"#utility.yul\":16715:16721   */\n      dup6\n        /* \"#utility.yul\":16707:16713   */\n      dup8\n        /* \"#utility.yul\":16641:16729   */\n      tag_139\n      jump\t// in\n    tag_299:\n        /* \"#utility.yul\":16633:16729   */\n      swap1\n      pop\n        /* \"#utility.yul\":16739:16809   */\n      tag_300\n        /* \"#utility.yul\":16805:16807   */\n      0x60\n        /* \"#utility.yul\":16794:16803   */\n      dup4\n        /* \"#utility.yul\":16790:16808   */\n      add\n        /* \"#utility.yul\":16781:16787   */\n      dup5\n        /* \"#utility.yul\":16739:16809   */\n      tag_103\n      jump\t// in\n    tag_300:\n        /* \"#utility.yul\":15934:16816   */\n      swap9\n      swap8\n      pop\n      pop\n      pop\n      pop\n      pop\n      pop\n      pop\n      pop\n      jump\t// out\n\n    auxdata: 0xa264697066735822122030db63b1be7e29dc90db63e5b6f3679726b3ac2d314073123e3676891df9b79a64736f6c634300081e0033\n}\n",
				"bytecode": {
					"linkReferences": {},
					"object": "6080604052348015600e575f5ffd5b50335f5f6101000a81548173ffffffffffffffffffffffffffffffffffffffff021916908373ffffffffffffffffffffffffffffffffffffffff1602179055506113858061005b5f395ff3fe608060405234801561000f575f5ffd5b5060043610610055575f3560e01c806306f5497e146100595780631692a94214610075578063663b3e22146100aa5780637cd44c23146100df5780638da5cb5b146100fb575b5f5ffd5b610073600480360381019061006e9190610b3d565b610119565b005b61008f600480360381019061008a9190610b3d565b6102fa565b6040516100a196959493929190610c14565b60405180910390f35b6100c460048036038101906100bf9190610b3d565b6105c7565b6040516100d696959493929190610c14565b60405180910390f35b6100f960048036038101906100f49190610ce9565b6107c5565b005b610103610ade565b6040516101109190610dec565b60405180910390f35b5f5f9054906101000a900473ffffffffffffffffffffffffffffffffffffffff1673ffffffffffffffffffffffffffffffffffffffff163373ffffffffffffffffffffffffffffffffffffffff16146101a7576040517f08c379a000000000000000000000000000000000000000000000000000000000815260040161019e90610e4f565b60405180910390fd5b5f60015f8381526020019081526020015f2090505f815f0180546101ca90610e9a565b90500361020c576040517f08c379a000000000000000000000000000000000000000000000000000000000815260040161020390610f14565b60405180910390fd5b8060030160089054906101000a900460ff161561025e576040517f08c379a000000000000000000000000000000000000000000000000000000000815260040161025590610f7c565b60405180910390fd5b60018160030160086101000a81548160ff021916908315150217905550428160030160096101000a81548167ffffffffffffffff021916908367ffffffffffffffff160217905550817f3d69985c2efbdaf389b879cbe810cfa45fcfe95d59117c7f68dce2cde7605d3f8260030160099054906101000a900467ffffffffffffffff166040516102ee9190610f9a565b60405180910390a25050565b60608060605f5f5f5f60015f8981526020019081526020015f206040518060c00160405290815f8201805461032e90610e9a565b80601f016020809104026020016040519081016040528092919081815260200182805461035a90610e9a565b80156103a55780601f1061037c576101008083540402835291602001916103a5565b820191905f5260205f20905b81548152906001019060200180831161038857829003601f168201915b505050505081526020016001820180546103be90610e9a565b80601f01602080910402602001604051908101604052809291908181526020018280546103ea90610e9a565b80156104355780601f1061040c57610100808354040283529160200191610435565b820191905f5260205f20905b81548152906001019060200180831161041857829003601f168201915b5050505050815260200160028201805461044e90610e9a565b80601f016020809104026020016040519081016040528092919081815260200182805461047a90610e9a565b80156104c55780601f1061049c576101008083540402835291602001916104c5565b820191905f5260205f20905b8154815290600101906020018083116104a857829003601f168201915b50505050508152602001600382015f9054906101000a900467ffffffffffffffff1667ffffffffffffffff1667ffffffffffffffff1681526020016003820160089054906101000a900460ff161515151581526020016003820160099054906101000a900467ffffffffffffffff1667ffffffffffffffff1667ffffffffffffffff168152505090505f815f01515103610594576040517f08c379a000000000000000000000000000000000000000000000000000000000815260040161058b90610f14565b60405180910390fd5b805f015181602001518260400151836060015184608001518560a001519650965096509650965096505091939550919395565b6001602052805f5260405f205f91509050805f0180546105e690610e9a565b80601f016020809104026020016040519081016040528092919081815260200182805461061290610e9a565b801561065d5780601f106106345761010080835404028352916020019161065d565b820191905f5260205f20905b81548152906001019060200180831161064057829003601f168201915b50505050509080600101805461067290610e9a565b80601f016020809104026020016040519081016040528092919081815260200182805461069e90610e9a565b80156106e95780601f106106c0576101008083540402835291602001916106e9565b820191905f5260205f20905b8154815290600101906020018083116106cc57829003601f168201915b5050505050908060020180546106fe90610e9a565b80601f016020809104026020016040519081016040528092919081815260200182805461072a90610e9a565b80156107755780601f1061074c57610100808354040283529160200191610775565b820191905f5260205f20905b81548152906001019060200180831161075857829003601f168201915b505050505090806003015f9054906101000a900467ffffffffffffffff16908060030160089054906101000a900460ff16908060030160099054906101000a900467ffffffffffffffff16905086565b5f5f9054906101000a900473ffffffffffffffffffffffffffffffffffffffff1673ffffffffffffffffffffffffffffffffffffffff163373ffffffffffffffffffffffffffffffffffffffff1614610853576040517f08c379a000000000000000000000000000000000000000000000000000000000815260040161084a90610e4f565b60405180910390fd5b5f60015f8981526020019081526020015f205f01805461087290610e9a565b9050146108b4576040517f08c379a00000000000000000000000000000000000000000000000000000000081526004016108ab90610ffd565b60405180910390fd5b6040518060c0016040528087878080601f0160208091040260200160405190810160405280939291908181526020018383808284375f81840152601f19601f82011690508083019250505050505050815260200185858080601f0160208091040260200160405190810160405280939291908181526020018383808284375f81840152601f19601f82011690508083019250505050505050815260200183838080601f0160208091040260200160405190810160405280939291908181526020018383808284375f81840152601f19601f8201169050808301925050505050505081526020014267ffffffffffffffff1681526020015f151581526020015f67ffffffffffffffff1681525060015f8981526020019081526020015f205f820151815f0190816109e491906111e8565b5060208201518160010190816109fa91906111e8565b506040820151816002019081610a1091906111e8565b506060820151816003015f6101000a81548167ffffffffffffffff021916908367ffffffffffffffff16021790555060808201518160030160086101000a81548160ff02191690831515021790555060a08201518160030160096101000a81548167ffffffffffffffff021916908367ffffffffffffffff160217905550905050867fe5a74423ef8536b00921f9fdeab9509bfa75877ffaa5cc38441ddf54c979c90187878787878742604051610acd97969594939291906112f1565b60405180910390a250505050505050565b5f5f9054906101000a900473ffffffffffffffffffffffffffffffffffffffff1681565b5f5ffd5b5f5ffd5b5f819050919050565b610b1c81610b0a565b8114610b26575f5ffd5b50565b5f81359050610b3781610b13565b92915050565b5f60208284031215610b5257610b51610b02565b5b5f610b5f84828501610b29565b91505092915050565b5f81519050919050565b5f82825260208201905092915050565b8281835e5f83830152505050565b5f601f19601f8301169050919050565b5f610baa82610b68565b610bb48185610b72565b9350610bc4818560208601610b82565b610bcd81610b90565b840191505092915050565b5f67ffffffffffffffff82169050919050565b610bf481610bd8565b82525050565b5f8115159050919050565b610c0e81610bfa565b82525050565b5f60c0820190508181035f830152610c2c8189610ba0565b90508181036020830152610c408188610ba0565b90508181036040830152610c548187610ba0565b9050610c636060830186610beb565b610c706080830185610c05565b610c7d60a0830184610beb565b979650505050505050565b5f5ffd5b5f5ffd5b5f5ffd5b5f5f83601f840112610ca957610ca8610c88565b5b8235905067ffffffffffffffff811115610cc657610cc5610c8c565b5b602083019150836001820283011115610ce257610ce1610c90565b5b9250929050565b5f5f5f5f5f5f5f6080888a031215610d0457610d03610b02565b5b5f610d118a828b01610b29565b975050602088013567ffffffffffffffff811115610d3257610d31610b06565b5b610d3e8a828b01610c94565b9650965050604088013567ffffffffffffffff811115610d6157610d60610b06565b5b610d6d8a828b01610c94565b9450945050606088013567ffffffffffffffff811115610d9057610d8f610b06565b5b610d9c8a828b01610c94565b925092505092959891949750929550565b5f73ffffffffffffffffffffffffffffffffffffffff82169050919050565b5f610dd682610dad565b9050919050565b610de681610dcc565b82525050565b5f602082019050610dff5f830184610ddd565b92915050565b7f4e4f545f4f574e455200000000000000000000000000000000000000000000005f82015250565b5f610e39600983610b72565b9150610e4482610e05565b602082019050919050565b5f6020820190508181035f830152610e6681610e2d565b9050919050565b7f4e487b71000000000000000000000000000000000000000000000000000000005f52602260045260245ffd5b5f6002820490506001821680610eb157607f821691505b602082108103610ec457610ec3610e6d565b5b50919050565b7f4e4f545f464f554e4400000000000000000000000000000000000000000000005f82015250565b5f610efe600983610b72565b9150610f0982610eca565b602082019050919050565b5f6020820190508181035f830152610f2b81610ef2565b9050919050565b7f414c52454144595f5245564f4b454400000000000000000000000000000000005f82015250565b5f610f66600f83610b72565b9150610f7182610f32565b602082019050919050565b5f6020820190508181035f830152610f9381610f5a565b9050919050565b5f602082019050610fad5f830184610beb565b92915050565b7f414c52454144595f4558495354530000000000000000000000000000000000005f82015250565b5f610fe7600e83610b72565b9150610ff282610fb3565b602082019050919050565b5f6020820190508181035f83015261101481610fdb565b9050919050565b7f4e487b71000000000000000000000000000000000000000000000000000000005f52604160045260245ffd5b5f819050815f5260205f209050919050565b5f6020601f8301049050919050565b5f82821b905092915050565b5f600883026110a47fffffffffffffffffffffffffffffffffffffffffffffffffffffffffffffffff82611069565b6110ae8683611069565b95508019841693508086168417925050509392505050565b5f819050919050565b5f6110e96110e46110df84610b0a565b6110c6565b610b0a565b9050919050565b5f819050919050565b611102836110cf565b61111661110e826110f0565b848454611075565b825550505050565b5f5f905090565b61112d61111e565b6111388184846110f9565b505050565b5b8181101561115b576111505f82611125565b60018101905061113e565b5050565b601f8211156111a05761117181611048565b61117a8461105a565b81016020851015611189578190505b61119d6111958561105a565b83018261113d565b50505b505050565b5f82821c905092915050565b5f6111c05f19846008026111a5565b1980831691505092915050565b5f6111d883836111b1565b9150826002028217905092915050565b6111f182610b68565b67ffffffffffffffff81111561120a5761120961101b565b5b6112148254610e9a565b61121f82828561115f565b5f60209050601f831160018114611250575f841561123e578287015190505b61124885826111cd565b8655506112af565b601f19841661125e86611048565b5f5b8281101561128557848901518255600182019150602085019450602081019050611260565b868310156112a2578489015161129e601f8916826111b1565b8355505b6001600288020188555050505b505050505050565b828183375f83830152505050565b5f6112d08385610b72565b93506112dd8385846112b7565b6112e683610b90565b840190509392505050565b5f6080820190508181035f83015261130a81898b6112c5565b9050818103602083015261131f8187896112c5565b905081810360408301526113348185876112c5565b90506113436060830184610beb565b9897505050505050505056fea264697066735822122030db63b1be7e29dc90db63e5b6f3679726b3ac2d314073123e3676891df9b79a64736f6c634300081e0033",
					"opcodes": "PUSH1 0x80 PUSH1 0x40 MSTORE CALLVALUE DUP1 ISZERO PUSH1 0xE JUMPI PUSH0 PUSH0 REVERT JUMPDEST POP CALLER PUSH0 PUSH0 PUSH2 0x100 EXP DUP2 SLOAD DUP2 PUSH20 0xFFFFFFFFFFFFFFFFFFFFFFFFFFFFFFFFFFFFFFFF MUL NOT AND SWAP1 DUP4 PUSH20 0xFFFFFFFFFFFFFFFFFFFFFFFFFFFFFFFFFFFFFFFF AND MUL OR SWAP1 SSTORE POP PUSH2 0x1385 DUP1 PUSH2 0x5B PUSH0 CODECOPY PUSH0 RETURN INVALID PUSH1 0x80 PUSH1 0x40 MSTORE CALLVALUE DUP1 ISZERO PUSH2 0xF JUMPI PUSH0 PUSH0 REVERT JUMPDEST POP PUSH1 0x4 CALLDATASIZE LT PUSH2 0x55 JUMPI PUSH0 CALLDATALOAD PUSH1 0xE0 SHR DUP1 PUSH4 0x6F5497E EQ PUSH2 0x59 JUMPI DUP1 PUSH4 0x1692A942 EQ PUSH2 0x75 JUMPI DUP1 PUSH4 0x663B3E22 EQ PUSH2 0xAA JUMPI DUP1 PUSH4 0x7CD44C23 EQ PUSH2 0xDF JUMPI DUP1 PUSH4 0x8DA5CB5B EQ PUSH2 0xFB JUMPI JUMPDEST PUSH0 PUSH0 REVERT JUMPDEST PUSH2 0x73 PUSH1 0x4 DUP1 CALLDATASIZE SUB DUP2 ADD SWAP1 PUSH2 0x6E SWAP2 SWAP1 PUSH2 0xB3D JUMP JUMPDEST PUSH2 0x119 JUMP JUMPDEST STOP JUMPDEST PUSH2 0x8F PUSH1 0x4 DUP1 CALLDATASIZE SUB DUP2 ADD SWAP1 PUSH2 0x8A SWAP2 SWAP1 PUSH2 0xB3D JUMP JUMPDEST PUSH2 0x2FA JUMP JUMPDEST PUSH1 0x40 MLOAD PUSH2 0xA1 SWAP7 SWAP6 SWAP5 SWAP4 SWAP3 SWAP2 SWAP1 PUSH2 0xC14 JUMP JUMPDEST PUSH1 0x40 MLOAD DUP1 SWAP2 SUB SWAP1 RETURN JUMPDEST PUSH2 0xC4 PUSH1 0x4 DUP1 CALLDATASIZE SUB DUP2 ADD SWAP1 PUSH2 0xBF SWAP2 SWAP1 PUSH2 0xB3D JUMP JUMPDEST PUSH2 0x5C7 JUMP JUMPDEST PUSH1 0x40 MLOAD PUSH2 0xD6 SWAP7 SWAP6 SWAP5 SWAP4 SWAP3 SWAP2 SWAP1 PUSH2 0xC14 JUMP JUMPDEST PUSH1 0x40 MLOAD DUP1 SWAP2 SUB SWAP1 RETURN JUMPDEST PUSH2 0xF9 PUSH1 0x4 DUP1 CALLDATASIZE SUB DUP2 ADD SWAP1 PUSH2 0xF4 SWAP2 SWAP1 PUSH2 0xCE9 JUMP JUMPDEST PUSH2 0x7C5 JUMP JUMPDEST STOP JUMPDEST PUSH2 0x103 PUSH2 0xADE JUMP JUMPDEST PUSH1 0x40 MLOAD PUSH2 0x110 SWAP2 SWAP1 PUSH2 0xDEC JUMP JUMPDEST PUSH1 0x40 MLOAD DUP1 SWAP2 SUB SWAP1 RETURN JUMPDEST PUSH0 PUSH0 SWAP1 SLOAD SWAP1 PUSH2 0x100 EXP SWAP1 DIV PUSH20 0xFFFFFFFFFFFFFFFFFFFFFFFFFFFFFFFFFFFFFFFF AND PUSH20 0xFFFFFFFFFFFFFFFFFFFFFFFFFFFFFFFFFFFFFFFF AND CALLER PUSH20 0xFFFFFFFFFFFFFFFFFFFFFFFFFFFFFFFFFFFFFFFF AND EQ PUSH2 0x1A7 JUMPI PUSH1 0x40 MLOAD PUSH32 0x8C379A000000000000000000000000000000000000000000000000000000000 DUP2 MSTORE PUSH1 0x4 ADD PUSH2 0x19E SWAP1 PUSH2 0xE4F JUMP JUMPDEST PUSH1 0x40 MLOAD DUP1 SWAP2 SUB SWAP1 REVERT JUMPDEST PUSH0 PUSH1 0x1 PUSH0 DUP4 DUP2 MSTORE PUSH1 0x20 ADD SWAP1 DUP2 MSTORE PUSH1 0x20 ADD PUSH0 KECCAK256 SWAP1 POP PUSH0 DUP2 PUSH0 ADD DUP1 SLOAD PUSH2 0x1CA SWAP1 PUSH2 0xE9A JUMP JUMPDEST SWAP1 POP SUB PUSH2 0x20C JUMPI PUSH1 0x40 MLOAD PUSH32 0x8C379A000000000000000000000000000000000000000000000000000000000 DUP2 MSTORE PUSH1 0x4 ADD PUSH2 0x203 SWAP1 PUSH2 0xF14 JUMP JUMPDEST PUSH1 0x40 MLOAD DUP1 SWAP2 SUB SWAP1 REVERT JUMPDEST DUP1 PUSH1 0x3 ADD PUSH1 0x8 SWAP1 SLOAD SWAP1 PUSH2 0x100 EXP SWAP1 DIV PUSH1 0xFF AND ISZERO PUSH2 0x25E JUMPI PUSH1 0x40 MLOAD PUSH32 0x8C379A000000000000000000000000000000000000000000000000000000000 DUP2 MSTORE PUSH1 0x4 ADD PUSH2 0x255 SWAP1 PUSH2 0xF7C JUMP JUMPDEST PUSH1 0x40 MLOAD DUP1 SWAP2 SUB SWAP1 REVERT JUMPDEST PUSH1 0x1 DUP2 PUSH1 0x3 ADD PUSH1 0x8 PUSH2 0x100 EXP DUP2 SLOAD DUP2 PUSH1 0xFF MUL NOT AND SWAP1 DUP4 ISZERO ISZERO MUL OR SWAP1 SSTORE POP TIMESTAMP DUP2 PUSH1 0x3 ADD PUSH1 0x9 PUSH2 0x100 EXP DUP2 SLOAD DUP2 PUSH8 0xFFFFFFFFFFFFFFFF MUL NOT AND SWAP1 DUP4 PUSH8 0xFFFFFFFFFFFFFFFF AND MUL OR SWAP1 SSTORE POP DUP2 PUSH32 0x3D69985C2EFBDAF389B879CBE810CFA45FCFE95D59117C7F68DCE2CDE7605D3F DUP3 PUSH1 0x3 ADD PUSH1 0x9 SWAP1 SLOAD SWAP1 PUSH2 0x100 EXP SWAP1 DIV PUSH8 0xFFFFFFFFFFFFFFFF AND PUSH1 0x40 MLOAD PUSH2 0x2EE SWAP2 SWAP1 PUSH2 0xF9A JUMP JUMPDEST PUSH1 0x40 MLOAD DUP1 SWAP2 SUB SWAP1 LOG2 POP POP JUMP JUMPDEST PUSH1 0x60 DUP1 PUSH1 0x60 PUSH0 PUSH0 PUSH0 PUSH0 PUSH1 0x1 PUSH0 DUP10 DUP2 MSTORE PUSH1 0x20 ADD SWAP1 DUP2 MSTORE PUSH1 0x20 ADD PUSH0 KECCAK256 PUSH1 0x40 MLOAD DUP1 PUSH1 0xC0 ADD PUSH1 0x40 MSTORE SWAP1 DUP2 PUSH0 DUP3 ADD DUP1 SLOAD PUSH2 0x32E SWAP1 PUSH2 0xE9A JUMP JUMPDEST DUP1 PUSH1 0x1F ADD PUSH1 0x20 DUP1 SWAP2 DIV MUL PUSH1 0x20 ADD PUSH1 0x40 MLOAD SWAP1 DUP2 ADD PUSH1 0x40 MSTORE DUP1 SWAP3 SWAP2 SWAP1 DUP2 DUP2 MSTORE PUSH1 0x20 ADD DUP3 DUP1 SLOAD PUSH2 0x35A SWAP1 PUSH2 0xE9A JUMP JUMPDEST DUP1 ISZERO PUSH2 0x3A5 JUMPI DUP1 PUSH1 0x1F LT PUSH2 0x37C JUMPI PUSH2 0x100 DUP1 DUP4 SLOAD DIV MUL DUP4 MSTORE SWAP2 PUSH1 0x20 ADD SWAP2 PUSH2 0x3A5 JUMP JUMPDEST DUP3 ADD SWAP2 SWAP1 PUSH0 MSTORE PUSH1 0x20 PUSH0 KECCAK256 SWAP1 JUMPDEST DUP2 SLOAD DUP2 MSTORE SWAP1 PUSH1 0x1 ADD SWAP1 PUSH1 0x20 ADD DUP1 DUP4 GT PUSH2 0x388 JUMPI DUP3 SWAP1 SUB PUSH1 0x1F AND DUP3 ADD SWAP2 JUMPDEST POP POP POP POP POP DUP2 MSTORE PUSH1 0x20 ADD PUSH1 0x1 DUP3 ADD DUP1 SLOAD PUSH2 0x3BE SWAP1 PUSH2 0xE9A JUMP JUMPDEST DUP1 PUSH1 0x1F ADD PUSH1 0x20 DUP1 SWAP2 DIV MUL PUSH1 0x20 ADD PUSH1 0x40 MLOAD SWAP1 DUP2 ADD PUSH1 0x40 MSTORE DUP1 SWAP3 SWAP2 SWAP1 DUP2 DUP2 MSTORE PUSH1 0x20 ADD DUP3 DUP1 SLOAD PUSH2 0x3EA SWAP1 PUSH2 0xE9A JUMP JUMPDEST DUP1 ISZERO PUSH2 0x435 JUMPI DUP1 PUSH1 0x1F LT PUSH2 0x40C JUMPI PUSH2 0x100 DUP1 DUP4 SLOAD DIV MUL DUP4 MSTORE SWAP2 PUSH1 0x20 ADD SWAP2 PUSH2 0x435 JUMP JUMPDEST DUP3 ADD SWAP2 SWAP1 PUSH0 MSTORE PUSH1 0x20 PUSH0 KECCAK256 SWAP1 JUMPDEST DUP2 SLOAD DUP2 MSTORE SWAP1 PUSH1 0x1 ADD SWAP1 PUSH1 0x20 ADD DUP1 DUP4 GT PUSH2 0x418 JUMPI DUP3 SWAP1 SUB PUSH1 0x1F AND DUP3 ADD SWAP2 JUMPDEST POP POP POP POP POP DUP2 MSTORE PUSH1 0x20 ADD PUSH1 0x2 DUP3 ADD DUP1 SLOAD PUSH2 0x44E SWAP1 PUSH2 0xE9A JUMP JUMPDEST DUP1 PUSH1 0x1F ADD PUSH1 0x20 DUP1 SWAP2 DIV MUL PUSH1 0x20 ADD PUSH1 0x40 MLOAD SWAP1 DUP2 ADD PUSH1 0x40 MSTORE DUP1 SWAP3 SWAP2 SWAP1 DUP2 DUP2 MSTORE PUSH1 0x20 ADD DUP3 DUP1 SLOAD PUSH2 0x47A SWAP1 PUSH2 0xE9A JUMP JUMPDEST DUP1 ISZERO PUSH2 0x4C5 JUMPI DUP1 PUSH1 0x1F LT PUSH2 0x49C JUMPI PUSH2 0x100 DUP1 DUP4 SLOAD DIV MUL DUP4 MSTORE SWAP2 PUSH1 0x20 ADD SWAP2 PUSH2 0x4C5 JUMP JUMPDEST DUP3 ADD SWAP2 SWAP1 PUSH0 MSTORE PUSH1 0x20 PUSH0 KECCAK256 SWAP1 JUMPDEST DUP2 SLOAD DUP2 MSTORE SWAP1 PUSH1 0x1 ADD SWAP1 PUSH1 0x20 ADD DUP1 DUP4 GT PUSH2 0x4A8 JUMPI DUP3 SWAP1 SUB PUSH1 0x1F AND DUP3 ADD SWAP2 JUMPDEST POP POP POP POP POP DUP2 MSTORE PUSH1 0x20 ADD PUSH1 0x3 DUP3 ADD PUSH0 SWAP1 SLOAD SWAP1 PUSH2 0x100 EXP SWAP1 DIV PUSH8 0xFFFFFFFFFFFFFFFF AND PUSH8 0xFFFFFFFFFFFFFFFF AND PUSH8 0xFFFFFFFFFFFFFFFF AND DUP2 MSTORE PUSH1 0x20 ADD PUSH1 0x3 DUP3 ADD PUSH1 0x8 SWAP1 SLOAD SWAP1 PUSH2 0x100 EXP SWAP1 DIV PUSH1 0xFF AND ISZERO ISZERO ISZERO ISZERO DUP2 MSTORE PUSH1 0x20 ADD PUSH1 0x3 DUP3 ADD PUSH1 0x9 SWAP1 SLOAD SWAP1 PUSH2 0x100 EXP SWAP1 DIV PUSH8 0xFFFFFFFFFFFFFFFF AND PUSH8 0xFFFFFFFFFFFFFFFF AND PUSH8 0xFFFFFFFFFFFFFFFF AND DUP2 MSTORE POP POP SWAP1 POP PUSH0 DUP2 PUSH0 ADD MLOAD MLOAD SUB PUSH2 0x594 JUMPI PUSH1 0x40 MLOAD PUSH32 0x8C379A000000000000000000000000000000000000000000000000000000000 DUP2 MSTORE PUSH1 0x4 ADD PUSH2 0x58B SWAP1 PUSH2 0xF14 JUMP JUMPDEST PUSH1 0x40 MLOAD DUP1 SWAP2 SUB SWAP1 REVERT JUMPDEST DUP1 PUSH0 ADD MLOAD DUP2 PUSH1 0x20 ADD MLOAD DUP3 PUSH1 0x40 ADD MLOAD DUP4 PUSH1 0x60 ADD MLOAD DUP5 PUSH1 0x80 ADD MLOAD DUP6 PUSH1 0xA0 ADD MLOAD SWAP7 POP SWAP7 POP SWAP7 POP SWAP7 POP SWAP7 POP SWAP7 POP POP SWAP2 SWAP4 SWAP6 POP SWAP2 SWAP4 SWAP6 JUMP JUMPDEST PUSH1 0x1 PUSH1 0x20 MSTORE DUP1 PUSH0 MSTORE PUSH1 0x40 PUSH0 KECCAK256 PUSH0 SWAP2 POP SWAP1 POP DUP1 PUSH0 ADD DUP1 SLOAD PUSH2 0x5E6 SWAP1 PUSH2 0xE9A JUMP JUMPDEST DUP1 PUSH1 0x1F ADD PUSH1 0x20 DUP1 SWAP2 DIV MUL PUSH1 0x20 ADD PUSH1 0x40 MLOAD SWAP1 DUP2 ADD PUSH1 0x40 MSTORE DUP1 SWAP3 SWAP2 SWAP1 DUP2 DUP2 MSTORE PUSH1 0x20 ADD DUP3 DUP1 SLOAD PUSH2 0x612 SWAP1 PUSH2 0xE9A JUMP JUMPDEST DUP1 ISZERO PUSH2 0x65D JUMPI DUP1 PUSH1 0x1F LT PUSH2 0x634 JUMPI PUSH2 0x100 DUP1 DUP4 SLOAD DIV MUL DUP4 MSTORE SWAP2 PUSH1 0x20 ADD SWAP2 PUSH2 0x65D JUMP JUMPDEST DUP3 ADD SWAP2 SWAP1 PUSH0 MSTORE PUSH1 0x20 PUSH0 KECCAK256 SWAP1 JUMPDEST DUP2 SLOAD DUP2 MSTORE SWAP1 PUSH1 0x1 ADD SWAP1 PUSH1 0x20 ADD DUP1 DUP4 GT PUSH2 0x640 JUMPI DUP3 SWAP1 SUB PUSH1 0x1F AND DUP3 ADD SWAP2 JUMPDEST POP POP POP POP POP SWAP1 DUP1 PUSH1 0x1 ADD DUP1 SLOAD PUSH2 0x672 SWAP1 PUSH2 0xE9A JUMP JUMPDEST DUP1 PUSH1 0x1F ADD PUSH1 0x20 DUP1 SWAP2 DIV MUL PUSH1 0x20 ADD PUSH1 0x40 MLOAD SWAP1 DUP2 ADD PUSH1 0x40 MSTORE DUP1 SWAP3 SWAP2 SWAP1 DUP2 DUP2 MSTORE PUSH1 0x20 ADD DUP3 DUP1 SLOAD PUSH2 0x69E SWAP1 PUSH2 0xE9A JUMP JUMPDEST DUP1 ISZERO PUSH2 0x6E9 JUMPI DUP1 PUSH1 0x1F LT PUSH2 0x6C0 JUMPI PUSH2 0x100 DUP1 DUP4 SLOAD DIV MUL DUP4 MSTORE SWAP2 PUSH1 0x20 ADD SWAP2 PUSH2 0x6E9 JUMP JUMPDEST DUP3 ADD SWAP2 SWAP1 PUSH0 MSTORE PUSH1 0x20 PUSH0 KECCAK256 SWAP1 JUMPDEST DUP2 SLOAD DUP2 MSTORE SWAP1 PUSH1 0x1 ADD SWAP1 PUSH1 0x20 ADD DUP1 DUP4 GT PUSH2 0x6CC JUMPI DUP3 SWAP1 SUB PUSH1 0x1F AND DUP3 ADD SWAP2 JUMPDEST POP POP POP POP POP SWAP1 DUP1 PUSH1 0x2 ADD DUP1 SLOAD PUSH2 0x6FE SWAP1 PUSH2 0xE9A JUMP JUMPDEST DUP1 PUSH1 0x1F ADD PUSH1 0x20 DUP1 SWAP2 DIV MUL PUSH1 0x20 ADD PUSH1 0x40 MLOAD SWAP1 DUP2 ADD PUSH1 0x40 MSTORE DUP1 SWAP3 SWAP2 SWAP1 DUP2 DUP2 MSTORE PUSH1 0x20 ADD DUP3 DUP1 SLOAD PUSH2 0x72A SWAP1 PUSH2 0xE9A JUMP JUMPDEST DUP1 ISZERO PUSH2 0x775 JUMPI DUP1 PUSH1 0x1F LT PUSH2 0x74C JUMPI PUSH2 0x100 DUP1 DUP4 SLOAD DIV MUL DUP4 MSTORE SWAP2 PUSH1 0x20 ADD SWAP2 PUSH2 0x775 JUMP JUMPDEST DUP3 ADD SWAP2 SWAP1 PUSH0 MSTORE PUSH1 0x20 PUSH0 KECCAK256 SWAP1 JUMPDEST DUP2 SLOAD DUP2 MSTORE SWAP1 PUSH1 0x1 ADD SWAP1 PUSH1 0x20 ADD DUP1 DUP4 GT PUSH2 0x758 JUMPI DUP3 SWAP1 SUB PUSH1 0x1F AND DUP3 ADD SWAP2 JUMPDEST POP POP POP POP POP SWAP1 DUP1 PUSH1 0x3 ADD PUSH0 SWAP1 SLOAD SWAP1 PUSH2 0x100 EXP SWAP1 DIV PUSH8 0xFFFFFFFFFFFFFFFF AND SWAP1 DUP1 PUSH1 0x3 ADD PUSH1 0x8 SWAP1 SLOAD SWAP1 PUSH2 0x100 EXP SWAP1 DIV PUSH1 0xFF AND SWAP1 DUP1 PUSH1 0x3 ADD PUSH1 0x9 SWAP1 SLOAD SWAP1 PUSH2 0x100 EXP SWAP1 DIV PUSH8 0xFFFFFFFFFFFFFFFF AND SWAP1 POP DUP7 JUMP JUMPDEST PUSH0 PUSH0 SWAP1 SLOAD SWAP1 PUSH2 0x100 EXP SWAP1 DIV PUSH20 0xFFFFFFFFFFFFFFFFFFFFFFFFFFFFFFFFFFFFFFFF AND PUSH20 0xFFFFFFFFFFFFFFFFFFFFFFFFFFFFFFFFFFFFFFFF AND CALLER PUSH20 0xFFFFFFFFFFFFFFFFFFFFFFFFFFFFFFFFFFFFFFFF AND EQ PUSH2 0x853 JUMPI PUSH1 0x40 MLOAD PUSH32 0x8C379A000000000000000000000000000000000000000000000000000000000 DUP2 MSTORE PUSH1 0x4 ADD PUSH2 0x84A SWAP1 PUSH2 0xE4F JUMP JUMPDEST PUSH1 0x40 MLOAD DUP1 SWAP2 SUB SWAP1 REVERT JUMPDEST PUSH0 PUSH1 0x1 PUSH0 DUP10 DUP2 MSTORE PUSH1 0x20 ADD SWAP1 DUP2 MSTORE PUSH1 0x20 ADD PUSH0 KECCAK256 PUSH0 ADD DUP1 SLOAD PUSH2 0x872 SWAP1 PUSH2 0xE9A JUMP JUMPDEST SWAP1 POP EQ PUSH2 0x8B4 JUMPI PUSH1 0x40 MLOAD PUSH32 0x8C379A000000000000000000000000000000000000000000000000000000000 DUP2 MSTORE PUSH1 0x4 ADD PUSH2 0x8AB SWAP1 PUSH2 0xFFD JUMP JUMPDEST PUSH1 0x40 MLOAD DUP1 SWAP2 SUB SWAP1 REVERT JUMPDEST PUSH1 0x40 MLOAD DUP1 PUSH1 0xC0 ADD PUSH1 0x40 MSTORE DUP1 DUP8 DUP8 DUP1 DUP1 PUSH1 0x1F ADD PUSH1 0x20 DUP1 SWAP2 DIV MUL PUSH1 0x20 ADD PUSH1 0x40 MLOAD SWAP1 DUP2 ADD PUSH1 0x40 MSTORE DUP1 SWAP4 SWAP3 SWAP2 SWAP1 DUP2 DUP2 MSTORE PUSH1 0x20 ADD DUP4 DUP4 DUP1 DUP3 DUP5 CALLDATACOPY PUSH0 DUP2 DUP5 ADD MSTORE PUSH1 0x1F NOT PUSH1 0x1F DUP3 ADD AND SWAP1 POP DUP1 DUP4 ADD SWAP3 POP POP POP POP POP POP POP DUP2 MSTORE PUSH1 0x20 ADD DUP6 DUP6 DUP1 DUP1 PUSH1 0x1F ADD PUSH1 0x20 DUP1 SWAP2 DIV MUL PUSH1 0x20 ADD PUSH1 0x40 MLOAD SWAP1 DUP2 ADD PUSH1 0x40 MSTORE DUP1 SWAP4 SWAP3 SWAP2 SWAP1 DUP2 DUP2 MSTORE PUSH1 0x20 ADD DUP4 DUP4 DUP1 DUP3 DUP5 CALLDATACOPY PUSH0 DUP2 DUP5 ADD MSTORE PUSH1 0x1F NOT PUSH1 0x1F DUP3 ADD AND SWAP1 POP DUP1 DUP4 ADD SWAP3 POP POP POP POP POP POP POP DUP2 MSTORE PUSH1 0x20 ADD DUP4 DUP4 DUP1 DUP1 PUSH1 0x1F ADD PUSH1 0x20 DUP1 SWAP2 DIV MUL PUSH1 0x20 ADD PUSH1 0x40 MLOAD SWAP1 DUP2 ADD PUSH1 0x40 MSTORE DUP1 SWAP4 SWAP3 SWAP2 SWAP1 DUP2 DUP2 MSTORE PUSH1 0x20 ADD DUP4 DUP4 DUP1 DUP3 DUP5 CALLDATACOPY PUSH0 DUP2 DUP5 ADD MSTORE PUSH1 0x1F NOT PUSH1 0x1F DUP3 ADD AND SWAP1 POP DUP1 DUP4 ADD SWAP3 POP POP POP POP POP POP POP DUP2 MSTORE PUSH1 0x20 ADD TIMESTAMP PUSH8 0xFFFFFFFFFFFFFFFF AND DUP2 MSTORE PUSH1 0x20 ADD PUSH0 ISZERO ISZERO DUP2 MSTORE PUSH1 0x20 ADD PUSH0 PUSH8 0xFFFFFFFFFFFFFFFF AND DUP2 MSTORE POP PUSH1 0x1 PUSH0 DUP10 DUP2 MSTORE PUSH1 0x20 ADD SWAP1 DUP2 MSTORE PUSH1 0x20 ADD PUSH0 KECCAK256 PUSH0 DUP3 ADD MLOAD DUP2 PUSH0 ADD SWAP1 DUP2 PUSH2 0x9E4 SWAP2 SWAP1 PUSH2 0x11E8 JUMP JUMPDEST POP PUSH1 0x20 DUP3 ADD MLOAD DUP2 PUSH1 0x1 ADD SWAP1 DUP2 PUSH2 0x9FA SWAP2 SWAP1 PUSH2 0x11E8 JUMP JUMPDEST POP PUSH1 0x40 DUP3 ADD MLOAD DUP2 PUSH1 0x2 ADD SWAP1 DUP2 PUSH2 0xA10 SWAP2 SWAP1 PUSH2 0x11E8 JUMP JUMPDEST POP PUSH1 0x60 DUP3 ADD MLOAD DUP2 PUSH1 0x3 ADD PUSH0 PUSH2 0x100 EXP DUP2 SLOAD DUP2 PUSH8 0xFFFFFFFFFFFFFFFF MUL NOT AND SWAP1 DUP4 PUSH8 0xFFFFFFFFFFFFFFFF AND MUL OR SWAP1 SSTORE POP PUSH1 0x80 DUP3 ADD MLOAD DUP2 PUSH1 0x3 ADD PUSH1 0x8 PUSH2 0x100 EXP DUP2 SLOAD DUP2 PUSH1 0xFF MUL NOT AND SWAP1 DUP4 ISZERO ISZERO MUL OR SWAP1 SSTORE POP PUSH1 0xA0 DUP3 ADD MLOAD DUP2 PUSH1 0x3 ADD PUSH1 0x9 PUSH2 0x100 EXP DUP2 SLOAD DUP2 PUSH8 0xFFFFFFFFFFFFFFFF MUL NOT AND SWAP1 DUP4 PUSH8 0xFFFFFFFFFFFFFFFF AND MUL OR SWAP1 SSTORE POP SWAP1 POP POP DUP7 PUSH32 0xE5A74423EF8536B00921F9FDEAB9509BFA75877FFAA5CC38441DDF54C979C901 DUP8 DUP8 DUP8 DUP8 DUP8 DUP8 TIMESTAMP PUSH1 0x40 MLOAD PUSH2 0xACD SWAP8 SWAP7 SWAP6 SWAP5 SWAP4 SWAP3 SWAP2 SWAP1 PUSH2 0x12F1 JUMP JUMPDEST PUSH1 0x40 MLOAD DUP1 SWAP2 SUB SWAP1 LOG2 POP POP POP POP POP POP POP JUMP JUMPDEST PUSH0 PUSH0 SWAP1 SLOAD SWAP1 PUSH2 0x100 EXP SWAP1 DIV PUSH20 0xFFFFFFFFFFFFFFFFFFFFFFFFFFFFFFFFFFFFFFFF AND DUP2 JUMP JUMPDEST PUSH0 PUSH0 REVERT JUMPDEST PUSH0 PUSH0 REVERT JUMPDEST PUSH0 DUP2 SWAP1 POP SWAP2 SWAP1 POP JUMP JUMPDEST PUSH2 0xB1C DUP2 PUSH2 0xB0A JUMP JUMPDEST DUP2 EQ PUSH2 0xB26 JUMPI PUSH0 PUSH0 REVERT JUMPDEST POP JUMP JUMPDEST PUSH0 DUP2 CALLDATALOAD SWAP1 POP PUSH2 0xB37 DUP2 PUSH2 0xB13 JUMP JUMPDEST SWAP3 SWAP2 POP POP JUMP JUMPDEST PUSH0 PUSH1 0x20 DUP3 DUP5 SUB SLT ISZERO PUSH2 0xB52 JUMPI PUSH2 0xB51 PUSH2 0xB02 JUMP JUMPDEST JUMPDEST PUSH0 PUSH2 0xB5F DUP5 DUP3 DUP6 ADD PUSH2 0xB29 JUMP JUMPDEST SWAP2 POP POP SWAP3 SWAP2 POP POP JUMP JUMPDEST PUSH0 DUP2 MLOAD SWAP1 POP SWAP2 SWAP1 POP JUMP JUMPDEST PUSH0 DUP3 DUP3 MSTORE PUSH1 0x20 DUP3 ADD SWAP1 POP SWAP3 SWAP2 POP POP JUMP JUMPDEST DUP3 DUP2 DUP4 MCOPY PUSH0 DUP4 DUP4 ADD MSTORE POP POP POP JUMP JUMPDEST PUSH0 PUSH1 0x1F NOT PUSH1 0x1F DUP4 ADD AND SWAP1 POP SWAP2 SWAP1 POP JUMP JUMPDEST PUSH0 PUSH2 0xBAA DUP3 PUSH2 0xB68 JUMP JUMPDEST PUSH2 0xBB4 DUP2 DUP6 PUSH2 0xB72 JUMP JUMPDEST SWAP4 POP PUSH2 0xBC4 DUP2 DUP6 PUSH1 0x20 DUP7 ADD PUSH2 0xB82 JUMP JUMPDEST PUSH2 0xBCD DUP2 PUSH2 0xB90 JUMP JUMPDEST DUP5 ADD SWAP2 POP POP SWAP3 SWAP2 POP POP JUMP JUMPDEST PUSH0 PUSH8 0xFFFFFFFFFFFFFFFF DUP3 AND SWAP1 POP SWAP2 SWAP1 POP JUMP JUMPDEST PUSH2 0xBF4 DUP2 PUSH2 0xBD8 JUMP JUMPDEST DUP3 MSTORE POP POP JUMP JUMPDEST PUSH0 DUP2 ISZERO ISZERO SWAP1 POP SWAP2 SWAP1 POP JUMP JUMPDEST PUSH2 0xC0E DUP2 PUSH2 0xBFA JUMP JUMPDEST DUP3 MSTORE POP POP JUMP JUMPDEST PUSH0 PUSH1 0xC0 DUP3 ADD SWAP1 POP DUP2 DUP2 SUB PUSH0 DUP4 ADD MSTORE PUSH2 0xC2C DUP2 DUP10 PUSH2 0xBA0 JUMP JUMPDEST SWAP1 POP DUP2 DUP2 SUB PUSH1 0x20 DUP4 ADD MSTORE PUSH2 0xC40 DUP2 DUP9 PUSH2 0xBA0 JUMP JUMPDEST SWAP1 POP DUP2 DUP2 SUB PUSH1 0x40 DUP4 ADD MSTORE PUSH2 0xC54 DUP2 DUP8 PUSH2 0xBA0 JUMP JUMPDEST SWAP1 POP PUSH2 0xC63 PUSH1 0x60 DUP4 ADD DUP7 PUSH2 0xBEB JUMP JUMPDEST PUSH2 0xC70 PUSH1 0x80 DUP4 ADD DUP6 PUSH2 0xC05 JUMP JUMPDEST PUSH2 0xC7D PUSH1 0xA0 DUP4 ADD DUP5 PUSH2 0xBEB JUMP JUMPDEST SWAP8 SWAP7 POP POP POP POP POP POP POP JUMP JUMPDEST PUSH0 PUSH0 REVERT JUMPDEST PUSH0 PUSH0 REVERT JUMPDEST PUSH0 PUSH0 REVERT JUMPDEST PUSH0 PUSH0 DUP4 PUSH1 0x1F DUP5 ADD SLT PUSH2 0xCA9 JUMPI PUSH2 0xCA8 PUSH2 0xC88 JUMP JUMPDEST JUMPDEST DUP3 CALLDATALOAD SWAP1 POP PUSH8 0xFFFFFFFFFFFFFFFF DUP2 GT ISZERO PUSH2 0xCC6 JUMPI PUSH2 0xCC5 PUSH2 0xC8C JUMP JUMPDEST JUMPDEST PUSH1 0x20 DUP4 ADD SWAP2 POP DUP4 PUSH1 0x1 DUP3 MUL DUP4 ADD GT ISZERO PUSH2 0xCE2 JUMPI PUSH2 0xCE1 PUSH2 0xC90 JUMP JUMPDEST JUMPDEST SWAP3 POP SWAP3 SWAP1 POP JUMP JUMPDEST PUSH0 PUSH0 PUSH0 PUSH0 PUSH0 PUSH0 PUSH0 PUSH1 0x80 DUP9 DUP11 SUB SLT ISZERO PUSH2 0xD04 JUMPI PUSH2 0xD03 PUSH2 0xB02 JUMP JUMPDEST JUMPDEST PUSH0 PUSH2 0xD11 DUP11 DUP3 DUP12 ADD PUSH2 0xB29 JUMP JUMPDEST SWAP8 POP POP PUSH1 0x20 DUP9 ADD CALLDATALOAD PUSH8 0xFFFFFFFFFFFFFFFF DUP2 GT ISZERO PUSH2 0xD32 JUMPI PUSH2 0xD31 PUSH2 0xB06 JUMP JUMPDEST JUMPDEST PUSH2 0xD3E DUP11 DUP3 DUP12 ADD PUSH2 0xC94 JUMP JUMPDEST SWAP7 POP SWAP7 POP POP PUSH1 0x40 DUP9 ADD CALLDATALOAD PUSH8 0xFFFFFFFFFFFFFFFF DUP2 GT ISZERO PUSH2 0xD61 JUMPI PUSH2 0xD60 PUSH2 0xB06 JUMP JUMPDEST JUMPDEST PUSH2 0xD6D DUP11 DUP3 DUP12 ADD PUSH2 0xC94 JUMP JUMPDEST SWAP5 POP SWAP5 POP POP PUSH1 0x60 DUP9 ADD CALLDATALOAD PUSH8 0xFFFFFFFFFFFFFFFF DUP2 GT ISZERO PUSH2 0xD90 JUMPI PUSH2 0xD8F PUSH2 0xB06 JUMP JUMPDEST JUMPDEST PUSH2 0xD9C DUP11 DUP3 DUP12 ADD PUSH2 0xC94 JUMP JUMPDEST SWAP3 POP SWAP3 POP POP SWAP3 SWAP6 SWAP9 SWAP2 SWAP5 SWAP8 POP SWAP3 SWAP6 POP JUMP JUMPDEST PUSH0 PUSH20 0xFFFFFFFFFFFFFFFFFFFFFFFFFFFFFFFFFFFFFFFF DUP3 AND SWAP1 POP SWAP2 SWAP1 POP JUMP JUMPDEST PUSH0 PUSH2 0xDD6 DUP3 PUSH2 0xDAD JUMP JUMPDEST SWAP1 POP SWAP2 SWAP1 POP JUMP JUMPDEST PUSH2 0xDE6 DUP2 PUSH2 0xDCC JUMP JUMPDEST DUP3 MSTORE POP POP JUMP JUMPDEST PUSH0 PUSH1 0x20 DUP3 ADD SWAP1 POP PUSH2 0xDFF PUSH0 DUP4 ADD DUP5 PUSH2 0xDDD JUMP JUMPDEST SWAP3 SWAP2 POP POP JUMP JUMPDEST PUSH32 0x4E4F545F4F574E45520000000000000000000000000000000000000000000000 PUSH0 DUP3 ADD MSTORE POP JUMP JUMPDEST PUSH0 PUSH2 0xE39 PUSH1 0x9 DUP4 PUSH2 0xB72 JUMP JUMPDEST SWAP2 POP PUSH2 0xE44 DUP3 PUSH2 0xE05 JUMP JUMPDEST PUSH1 0x20 DUP3 ADD SWAP1 POP SWAP2 SWAP1 POP JUMP JUMPDEST PUSH0 PUSH1 0x20 DUP3 ADD SWAP1 POP DUP2 DUP2 SUB PUSH0 DUP4 ADD MSTORE PUSH2 0xE66 DUP2 PUSH2 0xE2D JUMP JUMPDEST SWAP1 POP SWAP2 SWAP1 POP JUMP JUMPDEST PUSH32 0x4E487B7100000000000000000000000000000000000000000000000000000000 PUSH0 MSTORE PUSH1 0x22 PUSH1 0x4 MSTORE PUSH1 0x24 PUSH0 REVERT JUMPDEST PUSH0 PUSH1 0x2 DUP3 DIV SWAP1 POP PUSH1 0x1 DUP3 AND DUP1 PUSH2 0xEB1 JUMPI PUSH1 0x7F DUP3 AND SWAP2 POP JUMPDEST PUSH1 0x20 DUP3 LT DUP2 SUB PUSH2 0xEC4 JUMPI PUSH2 0xEC3 PUSH2 0xE6D JUMP JUMPDEST JUMPDEST POP SWAP2 SWAP1 POP JUMP JUMPDEST PUSH32 0x4E4F545F464F554E440000000000000000000000000000000000000000000000 PUSH0 DUP3 ADD MSTORE POP JUMP JUMPDEST PUSH0 PUSH2 0xEFE PUSH1 0x9 DUP4 PUSH2 0xB72 JUMP JUMPDEST SWAP2 POP PUSH2 0xF09 DUP3 PUSH2 0xECA JUMP JUMPDEST PUSH1 0x20 DUP3 ADD SWAP1 POP SWAP2 SWAP1 POP JUMP JUMPDEST PUSH0 PUSH1 0x20 DUP3 ADD SWAP1 POP DUP2 DUP2 SUB PUSH0 DUP4 ADD MSTORE PUSH2 0xF2B DUP2 PUSH2 0xEF2 JUMP JUMPDEST SWAP1 POP SWAP2 SWAP1 POP JUMP JUMPDEST PUSH32 0x414C52454144595F5245564F4B45440000000000000000000000000000000000 PUSH0 DUP3 ADD MSTORE POP JUMP JUMPDEST PUSH0 PUSH2 0xF66 PUSH1 0xF DUP4 PUSH2 0xB72 JUMP JUMPDEST SWAP2 POP PUSH2 0xF71 DUP3 PUSH2 0xF32 JUMP JUMPDEST PUSH1 0x20 DUP3 ADD SWAP1 POP SWAP2 SWAP1 POP JUMP JUMPDEST PUSH0 PUSH1 0x20 DUP3 ADD SWAP1 POP DUP2 DUP2 SUB PUSH0 DUP4 ADD MSTORE PUSH2 0xF93 DUP2 PUSH2 0xF5A JUMP JUMPDEST SWAP1 POP SWAP2 SWAP1 POP JUMP JUMPDEST PUSH0 PUSH1 0x20 DUP3 ADD SWAP1 POP PUSH2 0xFAD PUSH0 DUP4 ADD DUP5 PUSH2 0xBEB JUMP JUMPDEST SWAP3 SWAP2 POP POP JUMP JUMPDEST PUSH32 0x414C52454144595F455849535453000000000000000000000000000000000000 PUSH0 DUP3 ADD MSTORE POP JUMP JUMPDEST PUSH0 PUSH2 0xFE7 PUSH1 0xE DUP4 PUSH2 0xB72 JUMP JUMPDEST SWAP2 POP PUSH2 0xFF2 DUP3 PUSH2 0xFB3 JUMP JUMPDEST PUSH1 0x20 DUP3 ADD SWAP1 POP SWAP2 SWAP1 POP JUMP JUMPDEST PUSH0 PUSH1 0x20 DUP3 ADD SWAP1 POP DUP2 DUP2 SUB PUSH0 DUP4 ADD MSTORE PUSH2 0x1014 DUP2 PUSH2 0xFDB JUMP JUMPDEST SWAP1 POP SWAP2 SWAP1 POP JUMP JUMPDEST PUSH32 0x4E487B7100000000000000000000000000000000000000000000000000000000 PUSH0 MSTORE PUSH1 0x41 PUSH1 0x4 MSTORE PUSH1 0x24 PUSH0 REVERT JUMPDEST PUSH0 DUP2 SWAP1 POP DUP2 PUSH0 MSTORE PUSH1 0x20 PUSH0 KECCAK256 SWAP1 POP SWAP2 SWAP1 POP JUMP JUMPDEST PUSH0 PUSH1 0x20 PUSH1 0x1F DUP4 ADD DIV SWAP1 POP SWAP2 SWAP1 POP JUMP JUMPDEST PUSH0 DUP3 DUP3 SHL SWAP1 POP SWAP3 SWAP2 POP POP JUMP JUMPDEST PUSH0 PUSH1 0x8 DUP4 MUL PUSH2 0x10A4 PUSH32 0xFFFFFFFFFFFFFFFFFFFFFFFFFFFFFFFFFFFFFFFFFFFFFFFFFFFFFFFFFFFFFFFF DUP3 PUSH2 0x1069 JUMP JUMPDEST PUSH2 0x10AE DUP7 DUP4 PUSH2 0x1069 JUMP JUMPDEST SWAP6 POP DUP1 NOT DUP5 AND SWAP4 POP DUP1 DUP7 AND DUP5 OR SWAP3 POP POP POP SWAP4 SWAP3 POP POP POP JUMP JUMPDEST PUSH0 DUP2 SWAP1 POP SWAP2 SWAP1 POP JUMP JUMPDEST PUSH0 PUSH2 0x10E9 PUSH2 0x10E4 PUSH2 0x10DF DUP5 PUSH2 0xB0A JUMP JUMPDEST PUSH2 0x10C6 JUMP JUMPDEST PUSH2 0xB0A JUMP JUMPDEST SWAP1 POP SWAP2 SWAP1 POP JUMP JUMPDEST PUSH0 DUP2 SWAP1 POP SWAP2 SWAP1 POP JUMP JUMPDEST PUSH2 0x1102 DUP4 PUSH2 0x10CF JUMP JUMPDEST PUSH2 0x1116 PUSH2 0x110E DUP3 PUSH2 0x10F0 JUMP JUMPDEST DUP5 DUP5 SLOAD PUSH2 0x1075 JUMP JUMPDEST DUP3 SSTORE POP POP POP POP JUMP JUMPDEST PUSH0 PUSH0 SWAP1 POP SWAP1 JUMP JUMPDEST PUSH2 0x112D PUSH2 0x111E JUMP JUMPDEST PUSH2 0x1138 DUP2 DUP5 DUP5 PUSH2 0x10F9 JUMP JUMPDEST POP POP POP JUMP JUMPDEST JUMPDEST DUP2 DUP2 LT ISZERO PUSH2 0x115B JUMPI PUSH2 0x1150 PUSH0 DUP3 PUSH2 0x1125 JUMP JUMPDEST PUSH1 0x1 DUP2 ADD SWAP1 POP PUSH2 0x113E JUMP JUMPDEST POP POP JUMP JUMPDEST PUSH1 0x1F DUP3 GT ISZERO PUSH2 0x11A0 JUMPI PUSH2 0x1171 DUP2 PUSH2 0x1048 JUMP JUMPDEST PUSH2 0x117A DUP5 PUSH2 0x105A JUMP JUMPDEST DUP2 ADD PUSH1 0x20 DUP6 LT ISZERO PUSH2 0x1189 JUMPI DUP2 SWAP1 POP JUMPDEST PUSH2 0x119D PUSH2 0x1195 DUP6 PUSH2 0x105A JUMP JUMPDEST DUP4 ADD DUP3 PUSH2 0x113D JUMP JUMPDEST POP POP JUMPDEST POP POP POP JUMP JUMPDEST PUSH0 DUP3 DUP3 SHR SWAP1 POP SWAP3 SWAP2 POP POP JUMP JUMPDEST PUSH0 PUSH2 0x11C0 PUSH0 NOT DUP5 PUSH1 0x8 MUL PUSH2 0x11A5 JUMP JUMPDEST NOT DUP1 DUP4 AND SWAP2 POP POP SWAP3 SWAP2 POP POP JUMP JUMPDEST PUSH0 PUSH2 0x11D8 DUP4 DUP4 PUSH2 0x11B1 JUMP JUMPDEST SWAP2 POP DUP3 PUSH1 0x2 MUL DUP3 OR SWAP1 POP SWAP3 SWAP2 POP POP JUMP JUMPDEST PUSH2 0x11F1 DUP3 PUSH2 0xB68 JUMP JUMPDEST PUSH8 0xFFFFFFFFFFFFFFFF DUP2 GT ISZERO PUSH2 0x120A JUMPI PUSH2 0x1209 PUSH2 0x101B JUMP JUMPDEST JUMPDEST PUSH2 0x1214 DUP3 SLOAD PUSH2 0xE9A JUMP JUMPDEST PUSH2 0x121F DUP3 DUP3 DUP6 PUSH2 0x115F JUMP JUMPDEST PUSH0 PUSH1 0x20 SWAP1 POP PUSH1 0x1F DUP4 GT PUSH1 0x1 DUP2 EQ PUSH2 0x1250 JUMPI PUSH0 DUP5 ISZERO PUSH2 0x123E JUMPI DUP3 DUP8 ADD MLOAD SWAP1 POP JUMPDEST PUSH2 0x1248 DUP6 DUP3 PUSH2 0x11CD JUMP JUMPDEST DUP7 SSTORE POP PUSH2 0x12AF JUMP JUMPDEST PUSH1 0x1F NOT DUP5 AND PUSH2 0x125E DUP7 PUSH2 0x1048 JUMP JUMPDEST PUSH0 JUMPDEST DUP3 DUP2 LT ISZERO PUSH2 0x1285 JUMPI DUP5 DUP10 ADD MLOAD DUP3 SSTORE PUSH1 0x1 DUP3 ADD SWAP2 POP PUSH1 0x20 DUP6 ADD SWAP5 POP PUSH1 0x20 DUP2 ADD SWAP1 POP PUSH2 0x1260 JUMP JUMPDEST DUP7 DUP4 LT ISZERO PUSH2 0x12A2 JUMPI DUP5 DUP10 ADD MLOAD PUSH2 0x129E PUSH1 0x1F DUP10 AND DUP3 PUSH2 0x11B1 JUMP JUMPDEST DUP4 SSTORE POP JUMPDEST PUSH1 0x1 PUSH1 0x2 DUP9 MUL ADD DUP9 SSTORE POP POP POP JUMPDEST POP POP POP POP POP POP JUMP JUMPDEST DUP3 DUP2 DUP4 CALLDATACOPY PUSH0 DUP4 DUP4 ADD MSTORE POP POP POP JUMP JUMPDEST PUSH0 PUSH2 0x12D0 DUP4 DUP6 PUSH2 0xB72 JUMP JUMPDEST SWAP4 POP PUSH2 0x12DD DUP4 DUP6 DUP5 PUSH2 0x12B7 JUMP JUMPDEST PUSH2 0x12E6 DUP4 PUSH2 0xB90 JUMP JUMPDEST DUP5 ADD SWAP1 POP SWAP4 SWAP3 POP POP POP JUMP JUMPDEST PUSH0 PUSH1 0x80 DUP3 ADD SWAP1 POP DUP2 DUP2 SUB PUSH0 DUP4 ADD MSTORE PUSH2 0x130A DUP2 DUP10 DUP12 PUSH2 0x12C5 JUMP JUMPDEST SWAP1 POP DUP2 DUP2 SUB PUSH1 0x20 DUP4 ADD MSTORE PUSH2 0x131F DUP2 DUP8 DUP10 PUSH2 0x12C5 JUMP JUMPDEST SWAP1 POP DUP2 DUP2 SUB PUSH1 0x40 DUP4 ADD MSTORE PUSH2 0x1334 DUP2 DUP6 DUP8 PUSH2 0x12C5 JUMP JUMPDEST SWAP1 POP PUSH2 0x1343 PUSH1 0x60 DUP4 ADD DUP5 PUSH2 0xBEB JUMP JUMPDEST SWAP9 SWAP8 POP POP POP POP POP POP POP POP JUMP INVALID LOG2 PUSH5 0x6970667358 0x22 SLT KECCAK256 ADDRESS 0xDB PUSH4 0xB1BE7E29 0xDC SWAP1 0xDB PUSH4 0xE5B6F367 SWAP8 0x26 0xB3 0xAC 0x2D BALANCE BLOCKHASH PUSH20 0x123E3676891DF9B79A64736F6C634300081E0033 "
				},
				"gasEstimates": {
					"creation": {
						"codeDepositCost": "999400",
						"executionCost": "25303",
						"totalCost": "1024703"
					},
					"external": {
						"certificates(uint256)": "infinite",
						"issueCertificate(uint256,string,string,string)": "infinite",
						"owner()": "2573",
						"revokeCertificate(uint256)": "59515",
						"verifyCertificate(uint256)": "infinite"
					}
				},
				"methodIdentifiers": {
					"certificates(uint256)": "663b3e22",
					"issueCertificate(uint256,string,string,string)": "7cd44c23",
					"owner()": "8da5cb5b",
					"revokeCertificate(uint256)": "06f5497e",
					"verifyCertificate(uint256)": "1692a942"
				}
			},
			"storageLayout": {
				"storage": [
					{
						"astId": 3,
						"contract": "Certificate Validation With BlockChain/CertificateValidation.sol:CertificateValidation",
						"label": "owner",
						"offset": 0,
						"slot": "0",
						"type": "t_address"
					},
					{
						"astId": 21,
						"contract": "Certificate Validation With BlockChain/CertificateValidation.sol:CertificateValidation",
						"label": "certificates",
						"offset": 0,
						"slot": "1",
						"type": "t_mapping(t_uint256,t_struct(Certificate)16_storage)"
					}
				],
				"types": {
					"t_address": {
						"encoding": "inplace",
						"label": "address",
						"numberOfBytes": "20"
					},
					"t_bool": {
						"encoding": "inplace",
						"label": "bool",
						"numberOfBytes": "1"
					},
					"t_mapping(t_uint256,t_struct(Certificate)16_storage)": {
						"encoding": "mapping",
						"key": "t_uint256",
						"label": "mapping(uint256 => struct CertificateValidation.Certificate)",
						"numberOfBytes": "32",
						"value": "t_struct(Certificate)16_storage"
					},
					"t_string_storage": {
						"encoding": "bytes",
						"label": "string",
						"numberOfBytes": "32"
					},
					"t_struct(Certificate)16_storage": {
						"encoding": "inplace",
						"label": "struct CertificateValidation.Certificate",
						"members": [
							{
								"astId": 5,
								"contract": "Certificate Validation With BlockChain/CertificateValidation.sol:CertificateValidation",
								"label": "studentName",
								"offset": 0,
								"slot": "0",
								"type": "t_string_storage"
							},
							{
								"astId": 7,
								"contract": "Certificate Validation With BlockChain/CertificateValidation.sol:CertificateValidation",
								"label": "courseName",
								"offset": 0,
								"slot": "1",
								"type": "t_string_storage"
							},
							{
								"astId": 9,
								"contract": "Certificate Validation With BlockChain/CertificateValidation.sol:CertificateValidation",
								"label": "ipfsHash",
								"offset": 0,
								"slot": "2",
								"type": "t_string_storage"
							},
							{
								"astId": 11,
								"contract": "Certificate Validation With BlockChain/CertificateValidation.sol:CertificateValidation",
								"label": "issuedAt",
								"offset": 0,
								"slot": "3",
								"type": "t_uint64"
							},
							{
								"astId": 13,
								"contract": "Certificate Validation With BlockChain/CertificateValidation.sol:CertificateValidation",
								"label": "isRevoked",
								"offset": 8,
								"slot": "3",
								"type": "t_bool"
							},
							{
								"astId": 15,
								"contract": "Certificate Validation With BlockChain/CertificateValidation.sol:CertificateValidation",
								"label": "revokedAt",
								"offset": 9,
								"slot": "3",
								"type": "t_uint64"
							}
						],
						"numberOfBytes": "128"
					},
					"t_uint256": {
						"encoding": "inplace",
						"label": "uint256",
						"numberOfBytes": "32"
					},
					"t_uint64": {
						"encoding": "inplace",
						"label": "uint64",
						"numberOfBytes": "8"
					}
				}
			},
			"userdoc": {
				"kind": "user",
				"methods": {},
				"version": 1
			}
		}
	}
}